{"abi":[{"type":"constructor","inputs":[{"name":"_swapRouter","type":"address","internalType":"address"},{"name":"_factory","type":"address","internalType":"address"}],"stateMutability":"nonpayable"},{"type":"function","name":"DEFAULT_FEE_TIER","inputs":[],"outputs":[{"name":"","type":"uint24","internalType":"uint24"}],"stateMutability":"view"},{"type":"function","name":"DEFAULT_SLIPPAGE","inputs":[],"outputs":[{"name":"","type":"uint256","internalType":"uint256"}],"stateMutability":"view"},{"type":"function","name":"factory","inputs":[],"outputs":[{"name":"","type":"address","internalType":"contract IUniswapV3Factory"}],"stateMutability":"view"},{"type":"function","name":"getAmountsOut","inputs":[{"name":"tokenIn","type":"address","internalType":"address"},{"name":"tokenOut","type":"address","internalType":"address"},{"name":"amountIn","type":"uint256","internalType":"uint256"}],"outputs":[{"name":"amountOut","type":"uint256","internalType":"uint256"}],"stateMutability":"view"},{"type":"function","name":"name","inputs":[],"outputs":[{"name":"","type":"string","internalType":"string"}],"stateMutability":"pure"},{"type":"function","name":"supportsPair","inputs":[{"name":"tokenIn","type":"address","internalType":"address"},{"name":"tokenOut","type":"address","internalType":"address"}],"outputs":[{"name":"","type":"bool","internalType":"bool"}],"stateMutability":"view"},{"type":"function","name":"swapExactTokensForTokens","inputs":[{"name":"tokenIn","type":"address","internalType":"address"},{"name":"tokenOut","type":"address","internalType":"address"},{"name":"amountIn","type":"uint256","internalType":"uint256"},{"name":"amountOutMin","type":"uint256","internalType":"uint256"},{"name":"to","type":"address","internalType":"address"}],"outputs":[{"name":"amountOut","type":"uint256","internalType":"uint256"}],"stateMutability":"nonpayable"},{"type":"function","name":"swapRouter","inputs":[],"outputs":[{"name":"","type":"address","internalType":"contract ISwapRouter"}],"stateMutability":"view"},{"type":"function","name":"swapTokensForExactTokens","inputs":[{"name":"tokenIn","type":"address","internalType":"address"},{"name":"tokenOut","type":"address","internalType":"address"},{"name":"amountOut","type":"uint256","internalType":"uint256"},{"name":"amountInMax","type":"uint256","internalType":"uint256"},{"name":"to","type":"address","internalType":"address"}],"outputs":[{"name":"amountIn","type":"uint256","internalType":"uint256"}],"stateMutability":"nonpayable"}],"bytecode":{"object":"0x60c06040523462000074576200001f620000186200015e565b90620001e2565b620000296200007a565b61164462000201823960805181818161049b01528181610f0d0152818161101301528181611374015261147a015260a05181818161054a01528181610a7601526111bd015261164490f35b62000080565b60405190565b5f80fd5b601f801991011690565b634e487b7160e01b5f52604160045260245ffd5b90620000ae9062000084565b810190811060018060401b03821117620000c757604052565b6200008e565b90620000e4620000dc6200007a565b9283620000a2565b565b5f80fd5b60018060a01b031690565b6200010090620000ea565b90565b6200010e81620000f5565b036200011657565b5f80fd5b90505190620001298262000103565b565b91906040838203126200015857806200014b62000155925f86016200011a565b936020016200011a565b90565b620000e6565b6200018162001845803803806200017581620000cd565b9283398101906200012b565b9091565b90565b620001a16200019b620001a792620000ea565b62000185565b620000ea565b90565b620001b59062000188565b90565b620001c390620001aa565b90565b620001d19062000188565b90565b620001df90620001c6565b90565b90620001f2620001fb92620001b8565b608052620001d4565b60a05256fe60806040526004361015610013575b610608565b61001d5f356100ac565b806306fdde03146100a75780632495016a146100a257806345608d001461009d5780636c08c57e1461009857806392c5193914610093578063a87985101461008e578063c31c9c0714610089578063c45a0155146100845763f7d318090361000e576105cf565b61059a565b610513565b610464565b6103f6565b610369565b6102dd565b6101ec565b610152565b60e01c90565b60405190565b5f80fd5b5f80fd5b5f9103126100ca57565b6100bc565b5190565b60209181520190565b5f5b8381106100ee575050905f910152565b8060209183015181850152016100de565b601f801991011690565b6101286101316020936101369361011f816100cf565b938480936100d3565b958691016100dc565b6100ff565b0190565b61014f9160208201915f818403910152610109565b90565b34610182576101623660046100c0565b61017e61016d6106e8565b6101756100b2565b9182918261013a565b0390f35b6100b8565b90565b62ffffff1690565b90565b6101a96101a46101ae92610187565b610192565b61018a565b90565b6101bc610bb8610195565b90565b6101c76101b1565b90565b6101d39061018a565b9052565b91906101ea905f602085019401906101ca565b565b3461021c576101fc3660046100c0565b6102186102076101bf565b61020f6100b2565b918291826101d7565b0390f35b6100b8565b60018060a01b031690565b61023590610221565b90565b6102418161022c565b0361024857565b5f80fd5b9050359061025982610238565b565b90565b6102678161025b565b0361026e57565b5f80fd5b9050359061027f8261025e565b565b90916060828403126102b6576102b361029c845f850161024c565b936102aa816020860161024c565b93604001610272565b90565b6100bc565b6102c49061025b565b9052565b91906102db905f602085019401906102bb565b565b3461030e5761030a6102f96102f3366004610281565b91610a63565b6103016100b2565b918291826102c8565b0390f35b6100b8565b919060a0838203126103645761032b815f850161024c565b92610339826020830161024c565b9261036161034a8460408501610272565b936103588160608601610272565b9360800161024c565b90565b6100bc565b3461039d5761039961038861037f366004610313565b93929092610ec8565b6103906100b2565b918291826102c8565b0390f35b6100b8565b91906040838203126103ca57806103be6103c7925f860161024c565b9360200161024c565b90565b6100bc565b151590565b6103dd906103cf565b9052565b91906103f4905f602085019401906103d4565b565b346104275761042361041261040c3660046103a2565b906111ab565b61041a6100b2565b918291826103e1565b0390f35b6100b8565b90565b61044361043e6104489261042c565b610192565b61025b565b90565b6104566101f461042f565b90565b61046161044b565b90565b34610494576104743660046100c0565b61049061047f610459565b6104876100b2565b918291826102c8565b0390f35b6100b8565b7f000000000000000000000000000000000000000000000000000000000000000090565b6104d16104cc6104d692610221565b610192565b610221565b90565b6104e2906104bd565b90565b6104ee906104d9565b90565b6104fa906104e5565b9052565b9190610511905f602085019401906104f1565b565b34610543576105233660046100c0565b61053f61052e610499565b6105366100b2565b918291826104fe565b0390f35b6100b8565b7f000000000000000000000000000000000000000000000000000000000000000090565b610575906104d9565b90565b6105819061056c565b9052565b9190610598905f60208501940190610578565b565b346105ca576105aa3660046100c0565b6105c66105b5610548565b6105bd6100b2565b91829182610585565b0390f35b6100b8565b34610603576105ff6105ee6105e5366004610313565b9392909261132f565b6105f66100b2565b918291826102c8565b0390f35b6100b8565b5f80fd5b606090565b634e487b7160e01b5f52604160045260245ffd5b9061062f906100ff565b810190811067ffffffffffffffff82111761064957604052565b610611565b9061066161065a6100b2565b9283610625565b565b67ffffffffffffffff81116106815761067d6020916100ff565b0190565b610611565b9061069861069383610663565b61064e565b918252565b5f7f556e697377617056330000000000000000000000000000000000000000000000910152565b6106ce6009610686565b906106db6020830161069d565b565b6106e56106c4565b90565b6106f061060c565b506106f96106dd565b90565b5f90565b60e01b90565b9050519061071382610238565b565b9060208282031261072e5761072b915f01610706565b90565b6100bc565b61073c9061022c565b9052565b604090610769610770949695939661075f60608401985f850190610733565b6020830190610733565b01906101ca565b565b61077a6100b2565b3d5f823e3d90fd5b90565b61079961079461079e92610782565b610192565b610221565b90565b6107aa90610785565b90565b5f7f506f6f6c20646f6573206e6f7420657869737400000000000000000000000000910152565b6107e160136020926100d3565b6107ea816107ad565b0190565b6108039060208101905f8183039101526107d4565b90565b1561080d57565b6108156100b2565b62461bcd60e51b81528061082b600482016107ee565b0390fd5b610838906104bd565b90565b6108449061082f565b90565b610850906104d9565b90565b61085c81610221565b0361086357565b5f80fd5b9050519061087482610853565b565b60020b90565b61088581610876565b0361088c57565b5f80fd5b9050519061089d8261087c565b565b61ffff1690565b6108af8161089f565b036108b657565b5f80fd5b905051906108c7826108a6565b565b60ff1690565b6108d8816108c9565b036108df57565b5f80fd5b905051906108f0826108cf565b565b6108fb816103cf565b0361090257565b5f80fd5b90505190610913826108f2565b565b60e0818303126109805761092b825f8301610867565b926109398360208401610890565b9261094781604085016108ba565b9261095582606083016108ba565b9261097d61096684608085016108ba565b936109748160a086016108e3565b9360c001610906565b90565b6100bc565b5f0190565b61099e6109996109a392610221565b610192565b61025b565b90565b634e487b7160e01b5f52601160045260245ffd5b6109c96109cf9193929361025b565b9261025b565b916109db83820261025b565b9281840414901517156109ea57565b6109a6565b90565b610a06610a01610a0b926109ef565b610192565b61025b565b90565b90565b610a25610a20610a2a92610a0e565b610192565b61025b565b90565b634e487b7160e01b5f52601260045260245ffd5b610a4d610a539161025b565b9161025b565b908115610a5e570490565b610a2d565b9190602090610a706106fc565b50610a9a7f000000000000000000000000000000000000000000000000000000000000000061056c565b610ac4631698ee82959295610acf610ab06101b1565b610ab86100b2565b98899687958695610700565b855260048501610740565b03915afa918215610c2f57610b1e610b19610b349460e0935f91610c01575b50610b1481610b0d610b07610b025f6107a1565b61022c565b9161022c565b1415610806565b61083b565b610847565b633850c7bd90610b2c6100b2565b948592610700565b82528180610b4460048201610985565b03915afa908115610bfc57610baa610b97610b80610bb094610bc7965f91610bca575b50610b7a610b748261098a565b9161098a565b906109ba565b610b91670de0b6b3a76400006109f2565b906109ba565b610ba4600160c01b610a11565b90610a41565b906109ba565b610bc1670de0b6b3a76400006109f2565b90610a41565b90565b610beb915060e03d8111610bf5575b610be38183610625565b810190610915565b5050505050610b67565b503d610bd9565b610772565b610c22915060203d8111610c28575b610c1a8183610625565b810190610715565b5f610aee565b503d610c10565b610772565b610c48610c43610c4d92610782565b610192565b61025b565b90565b610c59906104d9565b90565b90505190610c698261025e565b565b90602082820312610c8457610c81915f01610c5c565b90565b6100bc565b604090610cb2610cb99496959396610ca860608401985f850190610733565b6020830190610733565b01906102bb565b565b90565b610cd2610ccd610cd792610cbb565b610192565b61025b565b90565b610ce9610cef9193929361025b565b9261025b565b8203918211610cfa57565b6109a6565b610d08906104bd565b90565b610d1490610cff565b90565b610d20906104d9565b90565b90602082820312610d3c57610d39915f01610906565b90565b6100bc565b916020610d62929493610d5b60408201965f830190610733565b01906102bb565b565b90565b610d7b610d76610d8092610d64565b610192565b61025b565b90565b610d92610d989193929361025b565b9261025b565b8201809211610da357565b6109a6565b610db361010061064e565b90565b90610dc09061022c565b9052565b90610dce9061018a565b9052565b90610ddc9061025b565b9052565b90610dea90610221565b9052565b610df79061022c565b9052565b610e049061018a565b9052565b610e119061025b565b9052565b610e1e90610221565b9052565b9060e080610eb093610e3a5f8201515f860190610dee565b610e4c60208201516020860190610dee565b610e5e60408201516040860190610dfb565b610e7060608201516060860190610dee565b610e8260808201516080860190610e08565b610e9460a082015160a0860190610e08565b610ea660c082015160c0860190610e08565b0151910190610e15565b565b9190610ec6905f6101008501940190610e22565b565b9391929093610ed56106fc565b5081610ee9610ee35f610c34565b9161025b565b146110e3575b610f00610efb82610d0b565b610d17565b602063095ea7b391610f317f00000000000000000000000000000000000000000000000000000000000000006104e5565b90610f4f5f8995610f5a610f436100b2565b97889687958694610700565b845260048401610d41565b03925af180156110de576110b2575b509392610f746101b1565b9242610384610f8290610d67565b610f8b91610d83565b9192935f95610f98610da8565b975f890190610fa691610db6565b6020880190610fb491610db6565b6040870190610fc291610dc4565b6060860190610fd091610db6565b6080850190610fde91610dd2565b60a0840190610fec91610dd2565b60c0830190610ffa91610dd2565b61100390610785565b60e082019061101191610de0565b7f000000000000000000000000000000000000000000000000000000000000000061103b906104e5565b63414bf3896110486100b2565b80936110548293610700565b8252600482019061106491610eb2565b03815a6020945f91f19081156110ad575f9161107f575b5090565b6110a0915060203d81116110a6575b6110988183610625565b810190610c6b565b5f61107b565b503d61108e565b610772565b6110d29060203d81116110d7575b6110ca8183610625565b810190610d23565b610f69565b503d6110c0565b610772565b90506110ee30610c50565b60206345608d009183906111158894611120896111096100b2565b97889687958695610700565b855260048501610c89565b03915afa9081156111a25761116e9161115d915f91611174575b5061115761271061115261114c61044b565b91610cbe565b610cda565b906109ba565b611168612710610cbe565b90610a41565b90610eef565b611195915060203d811161119b575b61118d8183610625565b810190610c6b565b5f61113a565b503d611183565b610772565b5f90565b906020906111b76111a7565b506111e17f000000000000000000000000000000000000000000000000000000000000000061056c565b61120b631698ee829492946112166111f76101b1565b6111ff6100b2565b97889687958695610700565b855260048501610740565b03915afa908115611276575f91611248575b5061124361123d6112385f6107a1565b61022c565b9161022c565b141590565b611269915060203d811161126f575b6112618183610625565b810190610715565b5f611228565b503d611257565b610772565b61128661010061064e565b90565b9060e080611317936112a15f8201515f860190610dee565b6112b360208201516020860190610dee565b6112c560408201516040860190610dfb565b6112d760608201516060860190610dee565b6112e960808201516080860190610e08565b6112fb60a082015160a0860190610e08565b61130d60c082015160c0860190610e08565b0151910190610e15565b565b919061132d905f6101008501940190611289565b565b939192909361133c6106fc565b508161135061134a5f610c34565b9161025b565b1461154a575b61136761136282610d0b565b610d17565b602063095ea7b3916113987f00000000000000000000000000000000000000000000000000000000000000006104e5565b906113b65f87956113c16113aa6100b2565b97889687958694610700565b845260048401610d41565b03925af1801561154557611519575b5093926113db6101b1565b92426103846113e990610d67565b6113f291610d83565b9192935f956113ff61127b565b975f89019061140d91610db6565b602088019061141b91610db6565b604087019061142991610dc4565b606086019061143791610db6565b608085019061144591610dd2565b60a084019061145391610dd2565b60c083019061146191610dd2565b61146a90610785565b60e082019061147891610de0565b7f00000000000000000000000000000000000000000000000000000000000000006114a2906104e5565b63db3e21986114af6100b2565b80936114bb8293610700565b825260048201906114cb91611319565b03815a6020945f91f1908115611514575f916114e6575b5090565b611507915060203d811161150d575b6114ff8183610625565b810190610c6b565b5f6114e2565b503d6114f5565b610772565b6115399060203d811161153e575b6115318183610625565b810190610d23565b6113d0565b503d611527565b610772565b905061155530610c50565b60206345608d0091869061157c8594611587896115706100b2565b97889687958695610700565b855260048501610c89565b03915afa908115611609576115d5916115c4915f916115db575b506115be6127106115b96115b361044b565b91610cbe565b610d83565b906109ba565b6115cf612710610cbe565b90610a41565b90611356565b6115fc915060203d8111611602575b6115f48183610625565b810190610c6b565b5f6115a1565b503d6115ea565b61077256fea264697066735822122060a7cf9af56e3e1ab8798e2c6b22e6a084fa5020cebfc7aebed45323666b039464736f6c63430008160033","linkReferences":{}},"methodIdentifiers":{"DEFAULT_FEE_TIER()":"2495016a","DEFAULT_SLIPPAGE()":"a8798510","factory()":"c45a0155","getAmountsOut(address,address,uint256)":"45608d00","name()":"06fdde03","supportsPair(address,address)":"92c51939","swapExactTokensForTokens(address,address,uint256,uint256,address)":"6c08c57e","swapRouter()":"c31c9c07","swapTokensForExactTokens(address,address,uint256,uint256,address)":"f7d31809"},"id":52}