{"abi":[{"type":"constructor","inputs":[],"stateMutability":"nonpayable"},{"type":"function","name":"POOL_FEES","inputs":[{"name":"","type":"uint256","internalType":"uint256"}],"outputs":[{"name":"","type":"uint24","internalType":"uint24"}],"stateMutability":"view"},{"type":"function","name":"UPGRADE_INTERFACE_VERSION","inputs":[],"outputs":[{"name":"","type":"string","internalType":"string"}],"stateMutability":"view"},{"type":"function","name":"factory","inputs":[],"outputs":[{"name":"","type":"address","internalType":"contract IUniswapV3Factory"}],"stateMutability":"view"},{"type":"function","name":"initialize","inputs":[{"name":"_swapRouter","type":"address","internalType":"address"},{"name":"_factory","type":"address","internalType":"address"},{"name":"_quoter","type":"address","internalType":"address"},{"name":"_usdc","type":"address","internalType":"address"}],"outputs":[],"stateMutability":"nonpayable"},{"type":"function","name":"name","inputs":[],"outputs":[{"name":"","type":"string","internalType":"string"}],"stateMutability":"pure"},{"type":"function","name":"owner","inputs":[],"outputs":[{"name":"","type":"address","internalType":"address"}],"stateMutability":"view"},{"type":"function","name":"proxiableUUID","inputs":[],"outputs":[{"name":"","type":"bytes32","internalType":"bytes32"}],"stateMutability":"view"},{"type":"function","name":"quoter","inputs":[],"outputs":[{"name":"","type":"address","internalType":"contract IQuoterV2"}],"stateMutability":"view"},{"type":"function","name":"renounceOwnership","inputs":[],"outputs":[],"stateMutability":"nonpayable"},{"type":"function","name":"swap","inputs":[{"name":"tokenIn","type":"address","internalType":"address"},{"name":"tokenOut","type":"address","internalType":"address"},{"name":"amountIn","type":"uint256","internalType":"uint256"},{"name":"amountOut","type":"uint256","internalType":"uint256"},{"name":"receiver","type":"address","internalType":"address"}],"outputs":[],"stateMutability":"nonpayable"},{"type":"function","name":"swapRouter","inputs":[],"outputs":[{"name":"","type":"address","internalType":"contract IV3SwapRouter"}],"stateMutability":"view"},{"type":"function","name":"transferOwnership","inputs":[{"name":"newOwner","type":"address","internalType":"address"}],"outputs":[],"stateMutability":"nonpayable"},{"type":"function","name":"upgradeToAndCall","inputs":[{"name":"newImplementation","type":"address","internalType":"address"},{"name":"data","type":"bytes","internalType":"bytes"}],"outputs":[],"stateMutability":"payable"},{"type":"function","name":"usdc","inputs":[],"outputs":[{"name":"","type":"address","internalType":"address"}],"stateMutability":"view"},{"type":"event","name":"Initialized","inputs":[{"name":"version","type":"uint64","indexed":false,"internalType":"uint64"}],"anonymous":false},{"type":"event","name":"OwnershipTransferred","inputs":[{"name":"previousOwner","type":"address","indexed":true,"internalType":"address"},{"name":"newOwner","type":"address","indexed":true,"internalType":"address"}],"anonymous":false},{"type":"event","name":"Swap","inputs":[{"name":"usdc","type":"address","indexed":false,"internalType":"address"},{"name":"amountOut","type":"uint256","indexed":false,"internalType":"uint256"},{"name":"receiver","type":"address","indexed":false,"internalType":"address"}],"anonymous":false},{"type":"event","name":"Upgraded","inputs":[{"name":"implementation","type":"address","indexed":true,"internalType":"address"}],"anonymous":false},{"type":"error","name":"AddressEmptyCode","inputs":[{"name":"target","type":"address","internalType":"address"}]},{"type":"error","name":"ERC1967InvalidImplementation","inputs":[{"name":"implementation","type":"address","internalType":"address"}]},{"type":"error","name":"ERC1967NonPayable","inputs":[]},{"type":"error","name":"FailedCall","inputs":[]},{"type":"error","name":"InvalidInitialization","inputs":[]},{"type":"error","name":"NotInitializing","inputs":[]},{"type":"error","name":"OwnableInvalidOwner","inputs":[{"name":"owner","type":"address","internalType":"address"}]},{"type":"error","name":"OwnableUnauthorizedAccount","inputs":[{"name":"account","type":"address","internalType":"address"}]},{"type":"error","name":"UUPSUnauthorizedCallContext","inputs":[]},{"type":"error","name":"UUPSUnsupportedProxiableUUID","inputs":[{"name":"slot","type":"bytes32","internalType":"bytes32"}]}],"bytecode":{"object":"0x60a080604052346100cc57306080527ff0c57e16840df040f15088dc2f81fe391c3923bec73e23a9662efc9c229c6a009081549060ff8260401c166100bd57506001600160401b036002600160401b031982821601610078575b60405161153290816100d18239608051818181610e2e0152610f130152f35b6001600160401b031990911681179091556040519081527fc7f505b2f371ae2175ee4913f4499e1f2633a7b5936321eed1cdaeb6115181d290602090a15f8080610059565b63f92ee8a960e01b8152600490fd5b5f80fdfe6080806040526004361015610012575f80fd5b5f3560e01c90816306fdde031461110b575080633e413bee146110e35780634f1ef28614610e9857806352d1902d14610e1c578063715018a614610db55780638d7bf27614610d785780638da5cb5b14610d44578063ad3cb1cc14610d03578063c31c9c0714610cdc578063c45a015514610cb4578063c6bbd5a714610c8c578063d5bcb9b5146103bc578063f2fde38b146103915763f8c8765e146100b6575f80fd5b3461038d57608036600319011261038d576100cf611190565b6100d76111a6565b6001600160a01b0360443581811693929084900361038d576064359282841680940361038d577ff0c57e16840df040f15088dc2f81fe391c3923bec73e23a9662efc9c229c6a009384549560ff8760401c16159467ffffffffffffffff9485891698891580610386575b6001809b14908161037c575b159081610373575b506103615767ffffffffffffffff1981168a17895587610342575b50610179611438565b610181611438565b610189611438565b610192336112d9565b816bffffffffffffffffffffffff60a01b9516855f5416175f55168388541617875582600254161760025560039160035416176003556040519160808301908382109082111761032e57604052606482526020916101f46020820152610bb86040820152612710606082015260045460048055806004106102b5575b509060045f525f925f5b876004821061028a578787877f8a35acfbc15ff81a39ae7d344fd709f28e8600b4aa8c65c6b64bfe7fe36bd19b5561024c57005b805468ff0000000000000000191690556040519081527fc7f505b2f371ae2175ee4913f4499e1f2633a7b5936321eed1cdaeb6115181d290602090a1005b9091849561ffff82959651169062ffffff858802881b92831b921b1916179501910192919092610218565b600a60097f8a35acfbc15ff81a39ae7d344fd709f28e8600b4aa8c65c6b64bfe7fe36bd19b92010481019080546bffffffffffffffffffffffff169055867f8a35acfbc15ff81a39ae7d344fd709f28e8600b4aa8c65c6b64bfe7fe36bd19c5b82811061032357505061020e565b5f8155018790610315565b634e487b7160e01b5f52604160045260245ffd5b68ffffffffffffffffff1916680100000000000000011788555f610170565b60405163f92ee8a960e01b8152600490fd5b9050155f610155565b303b15915061014d565b5087610141565b5f80fd5b3461038d57602036600319011261038d576103ba6103ad611190565b6103b561134a565b6112d9565b005b3461038d5760a036600319011261038d576103d5611190565b6103dd6111a6565b604435906084356001600160a01b038116900361038d576040516323b872dd60e01b8152336004820152306024820152604481018390526020816064815f6001600160a01b0389165af1801561064357610c6d575b505f5460405163095ea7b360e01b81526001600160a01b03909116600482015260248101839052602081806044810103815f6001600160a01b0389165af1801561064357610c4e575b505f19905f925f5b60045481101561064e5762ffffff61049a8261124e565b9054600154604051630b4c774160e11b81526001600160a01b038b81166004830152888116602483015260039490941b9290921c9390931662ffffff8116604483015292909160209183916064918391165afa908115610643575f91610614575b506001600160a01b03161561060b5760018060a01b036002541660a4604051610523816111bc565b6001600160a01b038a8116825287811660208301908152606480356040808601918252606086018981525f60808089018281529351635e90b82560e11b81529851881660048a0152955187166024890152925160448801525162ffffff169286019290925290519092166084840152919391928392859283915af19182915f936105d9575b50506105ba5750506001905b01610483565b8581106105cc575b50506001906105b4565b90955093506001876105c2565b6105f9929350803d10610604575b6105f18183611210565b8101906113f6565b5050509089806105a8565b503d6105e7565b506001906105b4565b610636915060203d60201161063c575b61062e8183611210565b8101906113d7565b886104fb565b503d610624565b6040513d5f823e3d90fd5b509290915f198114610c09578310610bc45762ffffff9060405192610672846111d8565b60018060a01b038616845260018060a01b0316602084015216604082015233606082015260643560808201528160a08201525f60c082015260206106d960e460018060a01b035f5416935f6040519586948593635023b4df60e01b85526004850190611382565b5af1908115610643575f91610b92575b5081811015610b5c576003546001600160a01b039081169084168114610a6857506003546001600160a01b03169161072191906112b8565b5f9182805b6004548110156108c25762ffffff61073d8261124e565b9054600154604051630b4c774160e11b81526001600160a01b038b81166004830152888116602483015260039490941b9290921c9390931662ffffff8116604483015292909160209183916064918391165afa908115610643575f916108a3575b506001600160a01b03161561089a5760018060a01b0360025416608061083c60a46040516107cb816111bc565b6001600160a01b038c81168252602082018a815260408084018d8152606085018a81525f8987018190529251636352813560e11b8152865186166004820152935185166024850152905160448401525162ffffff166064830152608090930151909116608482015294859384929190565b5af15f9181610876575b506108575750506001905b01610726565b838111610869575b5050600190610851565b909550915060018761085f565b61089091925060803d608011610604576105f18183611210565b5050509089610846565b50600190610851565b6108bc915060203d60201161063c5761062e8183611210565b8861079e565b509290919215610a235762ffffff91604051946108de866111d8565b60018060a01b03168552602085015216604083015260018060a01b0360843516606083015260808201525f60a08201525f60c0820152602061094360e460018060a01b035f5416935f60405195869485936304e45aaf60e01b85526004850190611382565b5af1908115610643575f916109f1575b50620f424081106109ac5760607fb6d9aa17ec350dac77ff1dbd32fa64587b27d4fe0d1f32d441e45dd69bd3e814915b600354604080516001600160a01b039283168152602081019390935260843590911690820152a1005b60405162461bcd60e51b815260206004820152601860248201527f676f742075736463206973206c657373207468616e20315500000000000000006044820152606490fd5b90506020813d602011610a1b575b81610a0c60209383611210565b8101031261038d575181610953565b3d91506109ff565b60405162461bcd60e51b815260206004820152601960248201527f4e6f2076616c696420696e70757420706f6f6c20666f756e64000000000000006044820152606490fd5b9250610a73916112b8565b620f42408110610b175760405163a9059cbb60e01b81526084356001600160a01b031660048201526024810182905291602090839060449082905f905af1908115610643577fb6d9aa17ec350dac77ff1dbd32fa64587b27d4fe0d1f32d441e45dd69bd3e81492606092610ae8575b50610983565b610b099060203d602011610b10575b610b018183611210565b8101906112a0565b5083610ae2565b503d610af7565b60405162461bcd60e51b815260206004820152601e60248201527f72656d61696e696e672075736463206973206c657373207468616e20315500006044820152606490fd5b60405162461bcd60e51b815260206004820152600e60248201526d1b9bc81d5cd918c81d1bc819d95d60921b6044820152606490fd5b90506020813d602011610bbc575b81610bad60209383611210565b8101031261038d5751836106e9565b3d9150610ba0565b60405162461bcd60e51b815260206004820152601960248201527f496e73756666696369656e7420696e70757420616d6f756e74000000000000006044820152606490fd5b60405162461bcd60e51b815260206004820152601a60248201527f4e6f2076616c6964206f757470757420706f6f6c20666f756e640000000000006044820152606490fd5b610c669060203d602011610b1057610b018183611210565b508361047b565b610c859060203d602011610b1057610b018183611210565b5083610432565b3461038d575f36600319011261038d576002546040516001600160a01b039091168152602090f35b3461038d575f36600319011261038d576001546040516001600160a01b039091168152602090f35b3461038d575f36600319011261038d575f546040516001600160a01b039091168152602090f35b3461038d575f36600319011261038d57610d40604051610d22816111f4565b60058152640352e302e360dc1b602082015260405191829182611149565b0390f35b3461038d575f36600319011261038d575f805160206114dd833981519152546040516001600160a01b039091168152602090f35b3461038d57602036600319011261038d5760043560045481101561038d5762ffffff610da560209261124e565b9190546040519260031b1c168152f35b3461038d575f36600319011261038d57610dcd61134a565b5f805160206114dd83398151915280546001600160a01b031981169091555f906001600160a01b03167f8be0079c531659141344cd1fd0a4f28419497f9722a3daafe3b4186f6b6457e08280a3005b3461038d575f36600319011261038d577f00000000000000000000000000000000000000000000000000000000000000006001600160a01b03163003610e865760206040517f360894a13ba1a3210667c828492db98dca3e2076cc3735a920a3ca505d382bbc8152f35b60405163703e46dd60e11b8152600490fd5b604036600319011261038d57610eac611190565b602490813567ffffffffffffffff811161038d573660238201121561038d578060040135610ed981611232565b92610ee76040519485611210565b818452602091828501933687838301011161038d57815f92888693018737860101526001600160a01b037f000000000000000000000000000000000000000000000000000000000000000081163081149081156110b5575b50610e8657610f4c61134a565b8116936040516352d1902d60e01b81528381600481895afa5f9181611086575b50610f8957604051634c9c8ce360e01b8152600481018790528790fd5b8590877f360894a13ba1a3210667c828492db98dca3e2076cc3735a920a3ca505d382bbc918281036110715750843b1561105b575080546001600160a01b03191682179055604051907fbc7cd75a20ee27fd9adebab32041f755214dbc6bffa90cc0225b39da2e5c2d3b5f80a281511561104057505f6103ba9481925190845af4903d15611037573d61101b81611232565b906110296040519283611210565b81525f81943d92013e611479565b60609250611479565b93505050503461104c57005b63b398979f60e01b8152600490fd5b604051634c9c8ce360e01b815260048101849052fd5b60405190632a87526960e21b82526004820152fd5b9091508481813d83116110ae575b61109e8183611210565b8101031261038d57519088610f6c565b503d611094565b9050817f360894a13ba1a3210667c828492db98dca3e2076cc3735a920a3ca505d382bbc5416141587610f3f565b3461038d575f36600319011261038d576003546040516001600160a01b039091168152602090f35b3461038d575f36600319011261038d5780611128610d40926111f4565b600c81526b0aadcd2e6eec2e0ac6688caf60a31b6020820152604051918291825b602080825282518183018190529093925f5b82811061117c57505060409293505f838284010152601f8019910116010190565b81810186015184820160400152850161115b565b600435906001600160a01b038216820361038d57565b602435906001600160a01b038216820361038d57565b60a0810190811067ffffffffffffffff82111761032e57604052565b60e0810190811067ffffffffffffffff82111761032e57604052565b6040810190811067ffffffffffffffff82111761032e57604052565b90601f8019910116810190811067ffffffffffffffff82111761032e57604052565b67ffffffffffffffff811161032e57601f01601f191660200190565b9060045482101561128c5760045f526003600a8084047f8a35acfbc15ff81a39ae7d344fd709f28e8600b4aa8c65c6b64bfe7fe36bd19b0193060290565b634e487b7160e01b5f52603260045260245ffd5b9081602091031261038d5751801515810361038d5790565b919082039182116112c557565b634e487b7160e01b5f52601160045260245ffd5b6001600160a01b03908116908115611332575f805160206114dd83398151915280546001600160a01b031981168417909155167f8be0079c531659141344cd1fd0a4f28419497f9722a3daafe3b4186f6b6457e05f80a3565b604051631e4fbdf760e01b81525f6004820152602490fd5b5f805160206114dd833981519152546001600160a01b0316330361136a57565b60405163118cdaa760e01b8152336004820152602490fd5b60c0908160018060a01b039182815116855282602082015116602086015262ffffff60408201511660408601528260608201511660608601526080810151608086015260a081015160a0860152015116910152565b9081602091031261038d57516001600160a01b038116810361038d5790565b919082608091031261038d57815160208301519092906001600160a01b038116810361038d5791604082015163ffffffff8116810361038d5760609092015190565b60ff7ff0c57e16840df040f15088dc2f81fe391c3923bec73e23a9662efc9c229c6a005460401c161561146757565b604051631afcd79f60e31b8152600490fd5b906114a0575080511561148e57805190602001fd5b60405163d6bda27560e01b8152600490fd5b815115806114d3575b6114b1575090565b604051639996b31560e01b81526001600160a01b039091166004820152602490fd5b50803b156114a956fe9016d09d72d40fdae2fd8ceac6b6234c7706214fd39c1cd1e609a0528c199300a2646970667358221220384dbddfdc850d93e5a4c9c1043586af63e3f07fa4fc99f054c8b1c0a15cf8c764736f6c63430008160033","linkReferences":{}},"methodIdentifiers":{"POOL_FEES(uint256)":"8d7bf276","UPGRADE_INTERFACE_VERSION()":"ad3cb1cc","factory()":"c45a0155","initialize(address,address,address,address)":"f8c8765e","name()":"06fdde03","owner()":"8da5cb5b","proxiableUUID()":"52d1902d","quoter()":"c6bbd5a7","renounceOwnership()":"715018a6","swap(address,address,uint256,uint256,address)":"d5bcb9b5","swapRouter()":"c31c9c07","transferOwnership(address)":"f2fde38b","upgradeToAndCall(address,bytes)":"4f1ef286","usdc()":"3e413bee"},"id":49}