{"abi":[{"type":"constructor","inputs":[{"name":"_swapRouter","type":"address","internalType":"address"},{"name":"_factory","type":"address","internalType":"address"}],"stateMutability":"nonpayable"},{"type":"function","name":"DEFAULT_FEE_TIER","inputs":[],"outputs":[{"name":"","type":"uint24","internalType":"uint24"}],"stateMutability":"view"},{"type":"function","name":"DEFAULT_SLIPPAGE","inputs":[],"outputs":[{"name":"","type":"uint256","internalType":"uint256"}],"stateMutability":"view"},{"type":"function","name":"factory","inputs":[],"outputs":[{"name":"","type":"address","internalType":"contract IUniswapV3Factory"}],"stateMutability":"view"},{"type":"function","name":"getAmountsOut","inputs":[{"name":"tokenIn","type":"address","internalType":"address"},{"name":"tokenOut","type":"address","internalType":"address"},{"name":"amountIn","type":"uint256","internalType":"uint256"}],"outputs":[{"name":"amountOut","type":"uint256","internalType":"uint256"}],"stateMutability":"view"},{"type":"function","name":"name","inputs":[],"outputs":[{"name":"","type":"string","internalType":"string"}],"stateMutability":"pure"},{"type":"function","name":"supportsPair","inputs":[{"name":"tokenIn","type":"address","internalType":"address"},{"name":"tokenOut","type":"address","internalType":"address"}],"outputs":[{"name":"","type":"bool","internalType":"bool"}],"stateMutability":"view"},{"type":"function","name":"swapExactTokensForTokens","inputs":[{"name":"tokenIn","type":"address","internalType":"address"},{"name":"tokenOut","type":"address","internalType":"address"},{"name":"amountIn","type":"uint256","internalType":"uint256"},{"name":"amountOutMin","type":"uint256","internalType":"uint256"},{"name":"to","type":"address","internalType":"address"}],"outputs":[{"name":"amountOut","type":"uint256","internalType":"uint256"}],"stateMutability":"nonpayable"},{"type":"function","name":"swapRouter","inputs":[],"outputs":[{"name":"","type":"address","internalType":"contract ISwapRouter"}],"stateMutability":"view"},{"type":"function","name":"swapTokensForExactTokens","inputs":[{"name":"tokenIn","type":"address","internalType":"address"},{"name":"tokenOut","type":"address","internalType":"address"},{"name":"amountOut","type":"uint256","internalType":"uint256"},{"name":"amountInMax","type":"uint256","internalType":"uint256"},{"name":"to","type":"address","internalType":"address"}],"outputs":[{"name":"amountIn","type":"uint256","internalType":"uint256"}],"stateMutability":"nonpayable"}],"bytecode":{"object":"0x60c0346100a057601f610ae238819003918201601f19168301916001600160401b038311848410176100a45780849260409485528339810103126100a057610052602061004b836100b8565b92016100b8565b6001600160a01b039182166080521660a052604051610a1590816100cd823960805181818160b2015281816103120152610469015260a0518181816102cf015281816103c001526106480152f35b5f80fd5b634e487b7160e01b5f52604160045260245ffd5b51906001600160a01b03821682036100a05756fe60806040908082526004361015610014575f80fd5b5f3560e01c90816306fdde03146107e4575080632495016a146107c857806345608d00146105ee5780636c08c57e1461043757806392c519391461035d578063a879851014610341578063c31c9c07146102fe578063c45a0155146102bb5763f7d3180914610081575f80fd5b346101b05761008f366108ae565b919493819391931561021c575b845163095ea7b360e01b81526001600160a01b037f000000000000000000000000000000000000000000000000000000000000000081166004830181905260248301879052979095916020816044815f888c165af18015610212576101d9575b5061038442018042116101c5578661016996816101049760209a8c51986101228a6108f3565b1688521689870152610bb88a870152166060850152608084015260a083015260c08201525f60e082018190528551631b67c43360e31b815296879485936004850190610980565b5af19081156101bc575f91610183575b6020925051908152f35b90506020823d6020116101b4575b8161019e60209383610910565b810103126101b0576020915190610179565b5f80fd5b3d9150610191565b513d5f823e3d90fd5b634e487b7160e01b5f52601160045260245ffd5b6020813d60201161020a575b816101f260209383610910565b810103126101b05761020390610960565b505f6100fc565b3d91506101e5565b88513d5f823e3d90fd5b84516245608d60e81b81526001600160a01b0383811660048301528216602482015260448101879052909350602081606481305afa9081156102b1575f9161027f575b50612904908181029181830414901517156101c55761271090049261009c565b90506020813d6020116102a9575b8161029a60209383610910565b810103126101b057515f61025f565b3d915061028d565b85513d5f823e3d90fd5b50346101b0575f3660031901126101b057517f00000000000000000000000000000000000000000000000000000000000000006001600160a01b03168152602090f35b50346101b0575f3660031901126101b057517f00000000000000000000000000000000000000000000000000000000000000006001600160a01b03168152602090f35b50346101b0575f3660031901126101b057602090516101f48152f35b50346101b057806003193601126101b0576103bb610379610882565b6020610383610898565b8451630b4c774160e11b81526001600160a01b0393841660048201529083166024820152610bb8604482015292839081906064820190565b0381847f0000000000000000000000000000000000000000000000000000000000000000165afa91821561042d57926020935f936103fe575b5051911615158152f35b61041f919350843d8611610426575b6104178183610910565b810190610932565b915f6103f4565b503d61040d565b83513d5f823e3d90fd5b50346101b057610446366108ae565b9194938193919315610559575b845163095ea7b360e01b81526001600160a01b037f000000000000000000000000000000000000000000000000000000000000000081166004830181905260248301899052979095916020816044815f888c165af1801561021257610520575b5061038442018042116101c5578661016996816101049760209a8c51986104d98a6108f3565b1688521689870152610bb88a870152166060850152608084015260a083015260c08201525f60e08201819052855163414bf38960e01b815296879485936004850190610980565b6020813d602011610551575b8161053960209383610910565b810103126101b05761054a90610960565b505f6104b3565b3d915061052c565b84516245608d60e81b81526001600160a01b0382811660048301528316602482015260448101879052909350602081606481305afa9081156102b1575f916105bc575b5061251c908181029181830414901517156101c557612710900492610453565b90506020813d6020116105e6575b816105d760209383610910565b810103126101b057515f61059c565b3d91506105ca565b50346101b05760603660031901126101b057610608610882565b90610611610898565b8151630b4c774160e11b81526001600160a01b0393841660048201529083166024820152610bb860448201526020929083816064817f000000000000000000000000000000000000000000000000000000000000000086165afa90811561042d579082915f916107ab575b50168015610771579060e0600492845193848092633850c7bd851b82525afa801561042d575f906106e6575b6106b49250168061096d565b670de0b6b3a764000090818102908082048314901517156101c5576106de9060c01c60443561096d565b049051908152f35b5060e0823d60e011610769575b8161070060e09383610910565b810103126101b057815181811681036101b057848301518060020b036101b05761072b848401610951565b5061073860608401610951565b5061074560808401610951565b5060a083015160ff8116036101b05761076360c06106b49401610960565b506106a8565b3d91506106f3565b825162461bcd60e51b8152600481018590526013602482015272141bdbdb08191bd95cc81b9bdd08195e1a5cdd606a1b6044820152606490fd5b6107c29150853d8711610426576104178183610910565b5f61067c565b50346101b0575f3660031901126101b05760209051610bb88152f35b82346101b0575f3660031901126101b05780820182811067ffffffffffffffff82111761086e57815260098252602068556e6973776170563360b81b60208401528151928391602083528151918260208501525f5b8381106108585750505f83830185015250601f01601f19168101030190f35b8181018301518782018701528694508201610839565b634e487b7160e01b5f52604160045260245ffd5b600435906001600160a01b03821682036101b057565b602435906001600160a01b03821682036101b057565b60a09060031901126101b0576001600160a01b0360043581811681036101b0579160243582811681036101b05791604435916064359160843590811681036101b05790565b610100810190811067ffffffffffffffff82111761086e57604052565b90601f8019910116810190811067ffffffffffffffff82111761086e57604052565b908160209103126101b057516001600160a01b03811681036101b05790565b519061ffff821682036101b057565b519081151582036101b057565b818102929181159184041417156101c557565b60e0908160018060a01b039182815116855282602082015116602086015262ffffff60408201511660408601528260608201511660608601526080810151608086015260a081015160a086015260c081015160c086015201511691015256fea264697066735822122092223ee305f78927f6b1aaff583a9452c50fb0f0e96cdb07def445ec3bdb31d364736f6c63430008160033","linkReferences":{}},"methodIdentifiers":{"DEFAULT_FEE_TIER()":"2495016a","DEFAULT_SLIPPAGE()":"a8798510","factory()":"c45a0155","getAmountsOut(address,address,uint256)":"45608d00","name()":"06fdde03","supportsPair(address,address)":"92c51939","swapExactTokensForTokens(address,address,uint256,uint256,address)":"6c08c57e","swapRouter()":"c31c9c07","swapTokensForExactTokens(address,address,uint256,uint256,address)":"f7d31809"},"id":52}