{"abi":[{"type":"constructor","inputs":[],"stateMutability":"nonpayable"},{"type":"function","name":"UPGRADE_INTERFACE_VERSION","inputs":[],"outputs":[{"name":"","type":"string","internalType":"string"}],"stateMutability":"view"},{"type":"function","name":"initialize","inputs":[{"name":"_swapRouter","type":"address","internalType":"address"}],"outputs":[],"stateMutability":"nonpayable"},{"type":"function","name":"name","inputs":[],"outputs":[{"name":"","type":"string","internalType":"string"}],"stateMutability":"pure"},{"type":"function","name":"owner","inputs":[],"outputs":[{"name":"","type":"address","internalType":"address"}],"stateMutability":"view"},{"type":"function","name":"proxiableUUID","inputs":[],"outputs":[{"name":"","type":"bytes32","internalType":"bytes32"}],"stateMutability":"view"},{"type":"function","name":"renounceOwnership","inputs":[],"outputs":[],"stateMutability":"nonpayable"},{"type":"function","name":"swapExactTokensForTokens","inputs":[{"name":"tokenIn","type":"address","internalType":"address"},{"name":"tokenOut","type":"address","internalType":"address"},{"name":"amountIn","type":"uint256","internalType":"uint256"},{"name":"amountOutMin","type":"uint256","internalType":"uint256"},{"name":"recipient","type":"address","internalType":"address"}],"outputs":[{"name":"","type":"uint256","internalType":"uint256"}],"stateMutability":"nonpayable"},{"type":"function","name":"swapRouter","inputs":[],"outputs":[{"name":"","type":"address","internalType":"contract ISwapRouter"}],"stateMutability":"view"},{"type":"function","name":"swapTokensForExactTokens","inputs":[{"name":"tokenIn","type":"address","internalType":"address"},{"name":"tokenOut","type":"address","internalType":"address"},{"name":"amountOut","type":"uint256","internalType":"uint256"},{"name":"amountInMax","type":"uint256","internalType":"uint256"},{"name":"recipient","type":"address","internalType":"address"}],"outputs":[{"name":"","type":"uint256","internalType":"uint256"}],"stateMutability":"nonpayable"},{"type":"function","name":"transferOwnership","inputs":[{"name":"newOwner","type":"address","internalType":"address"}],"outputs":[],"stateMutability":"nonpayable"},{"type":"function","name":"upgradeToAndCall","inputs":[{"name":"newImplementation","type":"address","internalType":"address"},{"name":"data","type":"bytes","internalType":"bytes"}],"outputs":[],"stateMutability":"payable"},{"type":"event","name":"Initialized","inputs":[{"name":"version","type":"uint64","indexed":false,"internalType":"uint64"}],"anonymous":false},{"type":"event","name":"OwnershipTransferred","inputs":[{"name":"previousOwner","type":"address","indexed":true,"internalType":"address"},{"name":"newOwner","type":"address","indexed":true,"internalType":"address"}],"anonymous":false},{"type":"event","name":"Upgraded","inputs":[{"name":"implementation","type":"address","indexed":true,"internalType":"address"}],"anonymous":false},{"type":"error","name":"AddressEmptyCode","inputs":[{"name":"target","type":"address","internalType":"address"}]},{"type":"error","name":"ERC1967InvalidImplementation","inputs":[{"name":"implementation","type":"address","internalType":"address"}]},{"type":"error","name":"ERC1967NonPayable","inputs":[]},{"type":"error","name":"FailedCall","inputs":[]},{"type":"error","name":"InvalidInitialization","inputs":[]},{"type":"error","name":"NotInitializing","inputs":[]},{"type":"error","name":"OwnableInvalidOwner","inputs":[{"name":"owner","type":"address","internalType":"address"}]},{"type":"error","name":"OwnableUnauthorizedAccount","inputs":[{"name":"account","type":"address","internalType":"address"}]},{"type":"error","name":"UUPSUnauthorizedCallContext","inputs":[]},{"type":"error","name":"UUPSUnsupportedProxiableUUID","inputs":[{"name":"slot","type":"bytes32","internalType":"bytes32"}]}],"bytecode":{"object":"0x60a080604052346100cc57306080527ff0c57e16840df040f15088dc2f81fe391c3923bec73e23a9662efc9c229c6a009081549060ff8260401c166100bd57506001600160401b036002600160401b031982821601610078575b604051610df590816100d182396080518181816107d001526108ae0152f35b6001600160401b031990911681179091556040519081527fc7f505b2f371ae2175ee4913f4499e1f2633a7b5936321eed1cdaeb6115181d290602090a15f8080610059565b63f92ee8a960e01b8152600490fd5b5f80fdfe6080604081815260049182361015610015575f80fd5b5f3560e01c90816306fdde0314610a8a575080634f1ef2861461083457806352d1902d146107bd5780636c08c57e146105ba578063715018a6146105535780638da5cb5b1461051f578063ad3cb1cc146104d7578063c31c9c07146104b0578063c4d66de81461035f578063f2fde38b146103345763f7d3180914610098575f80fd5b346102c8576100a636610bae565b85516323b872dd60e01b8152338882019081523060208281019190915260408201859052979693956001600160a01b038086169691959094919391929091908a908290819060600103815f8b5af1801561030d57610317575b505f54885163095ea7b360e01b81529085166001600160a01b03168b8201908152602081018990528a908290819060400103815f8b5af1801561030d579061018992916102f0575b5061017b89519687928c840190602b926001600160601b0319809260601b1683525f601484015260601b1660178201520190565b03601f198101865285610b70565b6103844201908142116102dd57926101ea92899a9592825f9b968b51956101af87610b24565b86521686850152898401526060830152866080830152885416908751988980948193631e51809360e31b835287898401526024830190610c0b565b03925af19485156102d3575f956102a0575b5082851061020e575b50505051908152f35b84830392831161028d57835163a9059cbb60e01b81523391810191825260208201939093528591839182905f90829060400103925af1801561028357610256575b8080610205565b61027590843d861161027c575b61026d8183610b70565b810190610bf3565b505f61024f565b503d610263565b82513d5f823e3d90fd5b601190634e487b7160e01b5f525260245ffd5b9094508581813d83116102cc575b6102b88183610b70565b810103126102c85751935f6101fc565b5f80fd5b503d6102ae565b84513d5f823e3d90fd5b60118a634e487b7160e01b5f525260245ffd5b610306908b3d8d1161027c5761026d8183610b70565b505f610147565b89513d5f823e3d90fd5b61032d908a3d8c1161027c5761026d8183610b70565b505f6100ff565b346102c85760203660031901126102c85761035d610350610b0e565b610358610cc3565b610c52565b005b5090346102c85760203660031901126102c85761037a610b0e565b907ff0c57e16840df040f15088dc2f81fe391c3923bec73e23a9662efc9c229c6a0091825460ff81861c16159267ffffffffffffffff8216801590816104a8575b600114908161049e575b159081610495575b50610487575067ffffffffffffffff198116600117845582610468575b506103f3610cfb565b6103fb610cfb565b610403610cfb565b61040c33610c52565b60018060a01b03166001600160601b0360a01b5f5416175f5561042b57005b805468ff00000000000000001916905551600181527fc7f505b2f371ae2175ee4913f4499e1f2633a7b5936321eed1cdaeb6115181d290602090a1005b68ffffffffffffffffff1916680100000000000000011783555f6103ea565b855163f92ee8a960e01b8152fd5b9050155f6103cd565b303b1591506103c5565b8591506103bb565b50346102c8575f3660031901126102c8575f5490516001600160a01b039091168152602090f35b50346102c8575f3660031901126102c857805161051b916104f782610b54565b60058252640352e302e360dc1b602083015251918291602083526020830190610ad0565b0390f35b50346102c8575f3660031901126102c8575f80516020610da08339815191525490516001600160a01b039091168152602090f35b346102c8575f3660031901126102c85761056b610cc3565b5f80516020610da083398151915280546001600160a01b031981169091555f906001600160a01b03167f8be0079c531659141344cd1fd0a4f28419497f9722a3daafe3b4186f6b6457e08280a3005b50346102c8576105c936610bae565b85516323b872dd60e01b81523381890190815230602082810191909152604082018690529895966001600160a01b03959392909186831691908b908290819060600103815f865af180156107b35761065c928c928792610796575b505f80548d5163095ea7b360e01b8152908b166001600160a01b03168c82019081526020810194909452948593849291839160400190565b03925af1801561030d57906106b39291610779575b506106a589519889928c840190602b926001600160601b0319809260601b1683525f601484015260601b1660178201520190565b03601f198101885287610b70565b610384420190814211610766579388959386935f93838b9a986107149c51996106db8b610b24565b8a52168689015289880152606087015260808601528154169286519788958694859363c04b8d5960e01b85528401526024830190610c0b565b03925af191821561075c575f9261072d575b5051908152f35b9091508281813d8311610755575b6107458183610b70565b810103126102c85751905f610726565b503d61073b565b50513d5f823e3d90fd5b601186634e487b7160e01b5f525260245ffd5b61078f908b3d8d1161027c5761026d8183610b70565b505f610671565b6107ac90843d861161027c5761026d8183610b70565b505f610624565b8a513d5f823e3d90fd5b50346102c8575f3660031901126102c8577f00000000000000000000000000000000000000000000000000000000000000006001600160a01b0316300361082757602090517f360894a13ba1a3210667c828492db98dca3e2076cc3735a920a3ca505d382bbc8152f35b5163703e46dd60e11b8152fd5b5090816003193601126102c857610849610b0e565b602492833567ffffffffffffffff81116102c857366023820112156102c8578084013561087581610b92565b9361088284519586610b70565b81855260209182860193368983830101116102c857815f928a8693018737870101526001600160a01b037f00000000000000000000000000000000000000000000000000000000000000008116308114908115610a5c575b50610a4c576108e7610cc3565b81169484516352d1902d60e01b8152838189818a5afa5f9181610a1d575b506109205750505050505191634c9c8ce360e01b8352820152fd5b9087878794938b7f360894a13ba1a3210667c828492db98dca3e2076cc3735a920a3ca505d382bbc91828103610a085750853b156109f4575080546001600160a01b031916821790558451907fbc7cd75a20ee27fd9adebab32041f755214dbc6bffa90cc0225b39da2e5c2d3b5f80a28251156109da5750505f61035d9581925190845af4913d156109d0573d6109c26109b982610b92565b92519283610b70565b81525f81943d92013e610d3c565b5060609250610d3c565b94509450505050346109e857005b63b398979f60e01b8152fd5b8651634c9c8ce360e01b8152808501849052fd5b8751632a87526960e21b815280860191909152fd5b9091508481813d8311610a45575b610a358183610b70565b810103126102c85751905f610905565b503d610a2b565b845163703e46dd60e11b81528790fd5b9050817f360894a13ba1a3210667c828492db98dca3e2076cc3735a920a3ca505d382bbc541614155f6108da565b9050346102c8575f3660031901126102c85761051b91610aa982610b54565b600c82526b0aadcd2e6eec2e0ac6688caf60a31b6020830152519182916020835260208301905b91908251928382525f5b848110610afa575050825f602080949584010152601f8019910116010190565b602081830181015184830182015201610ada565b600435906001600160a01b03821682036102c857565b60a0810190811067ffffffffffffffff821117610b4057604052565b634e487b7160e01b5f52604160045260245ffd5b6040810190811067ffffffffffffffff821117610b4057604052565b90601f8019910116810190811067ffffffffffffffff821117610b4057604052565b67ffffffffffffffff8111610b4057601f01601f191660200190565b60a09060031901126102c8576001600160a01b0360043581811681036102c8579160243582811681036102c85791604435916064359160843590811681036102c85790565b908160209103126102c8575180151581036102c85790565b90608080610c22845160a0855260a0850190610ad0565b6020808601516001600160a01b031690850152604080860151908501526060808601519085015293015191015290565b6001600160a01b03908116908115610cab575f80516020610da083398151915280546001600160a01b031981168417909155167f8be0079c531659141344cd1fd0a4f28419497f9722a3daafe3b4186f6b6457e05f80a3565b604051631e4fbdf760e01b81525f6004820152602490fd5b5f80516020610da0833981519152546001600160a01b03163303610ce357565b60405163118cdaa760e01b8152336004820152602490fd5b60ff7ff0c57e16840df040f15088dc2f81fe391c3923bec73e23a9662efc9c229c6a005460401c1615610d2a57565b604051631afcd79f60e31b8152600490fd5b90610d635750805115610d5157805190602001fd5b60405163d6bda27560e01b8152600490fd5b81511580610d96575b610d74575090565b604051639996b31560e01b81526001600160a01b039091166004820152602490fd5b50803b15610d6c56fe9016d09d72d40fdae2fd8ceac6b6234c7706214fd39c1cd1e609a0528c199300a2646970667358221220543aece46ca963f3e0e55cc684040a82f25ad252049b807b4662d8ae8bb1afd364736f6c63430008160033","linkReferences":{}},"methodIdentifiers":{"UPGRADE_INTERFACE_VERSION()":"ad3cb1cc","initialize(address)":"c4d66de8","name()":"06fdde03","owner()":"8da5cb5b","proxiableUUID()":"52d1902d","renounceOwnership()":"715018a6","swapExactTokensForTokens(address,address,uint256,uint256,address)":"6c08c57e","swapRouter()":"c31c9c07","swapTokensForExactTokens(address,address,uint256,uint256,address)":"f7d31809","transferOwnership(address)":"f2fde38b","upgradeToAndCall(address,bytes)":"4f1ef286"},"id":49}