{"abi":[{"type":"constructor","inputs":[],"stateMutability":"nonpayable"},{"type":"function","name":"ADDRESSES_PROVIDER","inputs":[],"outputs":[{"name":"","type":"address","internalType":"contract IPoolAddressesProvider"}],"stateMutability":"view"},{"type":"function","name":"POOL","inputs":[],"outputs":[{"name":"","type":"address","internalType":"contract IPool"}],"stateMutability":"view"},{"type":"function","name":"UPGRADE_INTERFACE_VERSION","inputs":[],"outputs":[{"name":"","type":"string","internalType":"string"}],"stateMutability":"view"},{"type":"function","name":"aave_v3_pool","inputs":[],"outputs":[{"name":"","type":"address","internalType":"contract IPool"}],"stateMutability":"view"},{"type":"function","name":"dex","inputs":[],"outputs":[{"name":"","type":"address","internalType":"contract IDex"}],"stateMutability":"view"},{"type":"function","name":"executeLiquidation","inputs":[{"name":"collateralAsset","type":"address","internalType":"address"},{"name":"debtAsset","type":"address","internalType":"address"},{"name":"user","type":"address","internalType":"address"},{"name":"amount","type":"uint256","internalType":"uint256"},{"name":"receiveAToken","type":"bool","internalType":"bool"}],"outputs":[],"stateMutability":"nonpayable"},{"type":"function","name":"executeOperation","inputs":[{"name":"asset","type":"address","internalType":"address"},{"name":"amount","type":"uint256","internalType":"uint256"},{"name":"premium","type":"uint256","internalType":"uint256"},{"name":"initiator","type":"address","internalType":"address"},{"name":"params","type":"bytes","internalType":"bytes"}],"outputs":[{"name":"","type":"bool","internalType":"bool"}],"stateMutability":"nonpayable"},{"type":"function","name":"initialize","inputs":[{"name":"_aave_v3_pool","type":"address","internalType":"address"},{"name":"_dex","type":"address","internalType":"address"},{"name":"_usdc","type":"address","internalType":"address"}],"outputs":[],"stateMutability":"nonpayable"},{"type":"function","name":"owner","inputs":[],"outputs":[{"name":"","type":"address","internalType":"address"}],"stateMutability":"view"},{"type":"function","name":"proxiableUUID","inputs":[],"outputs":[{"name":"","type":"bytes32","internalType":"bytes32"}],"stateMutability":"view"},{"type":"function","name":"renounceOwnership","inputs":[],"outputs":[],"stateMutability":"nonpayable"},{"type":"function","name":"transferOwnership","inputs":[{"name":"newOwner","type":"address","internalType":"address"}],"outputs":[],"stateMutability":"nonpayable"},{"type":"function","name":"upgradeToAndCall","inputs":[{"name":"newImplementation","type":"address","internalType":"address"},{"name":"data","type":"bytes","internalType":"bytes"}],"outputs":[],"stateMutability":"payable"},{"type":"function","name":"usdc","inputs":[],"outputs":[{"name":"","type":"address","internalType":"address"}],"stateMutability":"view"},{"type":"function","name":"withdrawToken","inputs":[{"name":"token","type":"address","internalType":"address"},{"name":"amount","type":"uint256","internalType":"uint256"}],"outputs":[],"stateMutability":"nonpayable"},{"type":"event","name":"Initialized","inputs":[{"name":"version","type":"uint64","indexed":false,"internalType":"uint64"}],"anonymous":false},{"type":"event","name":"Liquidation","inputs":[{"name":"user","type":"address","indexed":true,"internalType":"address"},{"name":"asset","type":"address","indexed":true,"internalType":"address"},{"name":"amount","type":"uint256","indexed":false,"internalType":"uint256"},{"name":"collateralAsset","type":"address","indexed":true,"internalType":"address"},{"name":"collateralAmount","type":"uint256","indexed":false,"internalType":"uint256"},{"name":"actualAmountToSwap","type":"uint256","indexed":false,"internalType":"uint256"}],"anonymous":false},{"type":"event","name":"OwnershipTransferred","inputs":[{"name":"previousOwner","type":"address","indexed":true,"internalType":"address"},{"name":"newOwner","type":"address","indexed":true,"internalType":"address"}],"anonymous":false},{"type":"event","name":"Upgraded","inputs":[{"name":"implementation","type":"address","indexed":true,"internalType":"address"}],"anonymous":false},{"type":"error","name":"AddressEmptyCode","inputs":[{"name":"target","type":"address","internalType":"address"}]},{"type":"error","name":"ERC1967InvalidImplementation","inputs":[{"name":"implementation","type":"address","internalType":"address"}]},{"type":"error","name":"ERC1967NonPayable","inputs":[]},{"type":"error","name":"FailedCall","inputs":[]},{"type":"error","name":"InvalidInitialization","inputs":[]},{"type":"error","name":"NotInitializing","inputs":[]},{"type":"error","name":"OwnableInvalidOwner","inputs":[{"name":"owner","type":"address","internalType":"address"}]},{"type":"error","name":"OwnableUnauthorizedAccount","inputs":[{"name":"account","type":"address","internalType":"address"}]},{"type":"error","name":"UUPSUnauthorizedCallContext","inputs":[]},{"type":"error","name":"UUPSUnsupportedProxiableUUID","inputs":[{"name":"slot","type":"bytes32","internalType":"bytes32"}]}],"bytecode":{"object":"0x60a06040523462000044576200001462000054565b6200001e6200004a565b61258c6200034d8239608051818181611dce01528181611e3a0152612003015261258c90f35b62000050565b60405190565b5f80fd5b6200005e6200006a565b62000068620001f7565b565b6200007462000076565b565b6200008062000082565b565b6200008c620000da565b565b60018060a01b031690565b90565b620000b5620000af620000bb926200008e565b62000099565b6200008e565b90565b620000c9906200009c565b90565b620000d790620000be565b90565b620000e530620000cc565b608052565b60401c90565b60ff1690565b620001056200010b91620000ea565b620000f0565b90565b6200011a9054620000f6565b90565b5f0190565b5f1c90565b60018060401b031690565b62000141620001479162000122565b62000127565b90565b62000156905462000132565b90565b60018060401b031690565b5f1b90565b906200017c60018060401b039162000164565b9181191691161790565b6200019f62000199620001a59262000159565b62000099565b62000159565b90565b90565b90620001c5620001bf620001cd9262000186565b620001a8565b825462000169565b9055565b620001dc9062000159565b9052565b9190620001f5905f60208501940190620001d1565b565b62000201620002cd565b6200020e5f82016200010e565b620002a657620002205f82016200014a565b6200023c6200023560018060401b0362000159565b9162000159565b0362000246575b50565b6200025b905f60018060401b039101620001ab565b60018060401b036200029c7fc7f505b2f371ae2175ee4913f4499e1f2633a7b5936321eed1cdaeb6115181d291620002926200004a565b91829182620001e0565b0390a15f62000243565b620002b06200004a565b63f92ee8a960e01b815280620002c9600482016200011d565b0390fd5b620002d762000334565b90565b5f90565b90565b90565b620002fd620002f76200030392620002de565b62000164565b620002e1565b90565b620003317ff0c57e16840df040f15088dc2f81fe391c3923bec73e23a9662efc9c229c6a00620002e4565b90565b6200033e620002da565b506200034962000306565b9056fe60806040526004361015610013575b610a89565b61001d5f3561010c565b80630542975c146101075780631b11d0ff146101025780633e413bee146100fd5780634f1ef286146100f857806352d1902d146100f3578063692058c2146100ee578063715018a6146100e95780637535d246146100e45780638da5cb5b146100df5780639e281a98146100da578063ad3cb1cc146100d5578063c0c53b8b146100d0578063d9802bc7146100cb578063f2fde38b146100c65763f5f8bbbc0361000e57610a54565b6109e3565b61098e565b6108e1565b610872565b61072a565b6106c8565b610693565b610632565b6105fd565b61055a565b61050b565b6103a5565b610303565b610193565b60e01c90565b60405190565b5f80fd5b5f80fd5b5f91031261012a57565b61011c565b60018060a01b031690565b90565b61015161014c6101569261012f565b61013a565b61012f565b90565b6101629061013d565b90565b61016e90610159565b90565b61017a90610165565b9052565b9190610191905f60208501940190610171565b565b346101c3576101a3366004610120565b6101bf6101ae610b61565b6101b6610112565b9182918261017e565b0390f35b610118565b5f80fd5b6101d59061012f565b90565b6101e1816101cc565b036101e857565b5f80fd5b905035906101f9826101d8565b565b90565b610207816101fb565b0361020e57565b5f80fd5b9050359061021f826101fe565b565b5f80fd5b5f80fd5b5f80fd5b909182601f830112156102675781359167ffffffffffffffff831161026257602001926001830284011161025d57565b610229565b610225565b610221565b91909160a0818403126102d757610285835f83016101ec565b926102938160208401610212565b926102a18260408501610212565b926102af83606083016101ec565b92608082013567ffffffffffffffff81116102d2576102ce920161022d565b9091565b6101c8565b61011c565b151590565b6102ea906102dc565b9052565b9190610301905f602085019401906102e1565b565b3461033a5761033661032561031936600461026c565b94939093929192611018565b61032d610112565b918291826102ee565b0390f35b610118565b1c90565b60018060a01b031690565b61035e906008610363930261033f565b610343565b90565b90610371915461034e565b90565b61038060025f90610366565b90565b61038c906101cc565b9052565b91906103a3905f60208501940190610383565b565b346103d5576103b5366004610120565b6103d16103c0610374565b6103c8610112565b91829182610390565b0390f35b610118565b5f80fd5b601f801991011690565b634e487b7160e01b5f52604160045260245ffd5b90610406906103de565b810190811067ffffffffffffffff82111761042057604052565b6103e8565b90610438610431610112565b92836103fc565b565b67ffffffffffffffff8111610458576104546020916103de565b0190565b6103e8565b90825f939282370152565b9092919261047d6104788261043a565b610425565b93818552602085019082840111610499576104979261045d565b565b6103da565b9080601f830112156104bc578160206104b993359101610468565b90565b610221565b919091604081840312610501576104da835f83016101ec565b92602082013567ffffffffffffffff81116104fc576104f9920161049e565b90565b6101c8565b61011c565b5f0190565b61051f6105193660046104c1565b906115ab565b610527610112565b8061053181610506565b0390f35b90565b61054190610535565b9052565b9190610558905f60208501940190610538565b565b3461058a5761056a366004610120565b61058661057561162b565b61057d610112565b91829182610545565b0390f35b610118565b60018060a01b031690565b6105aa9060086105af930261033f565b61058f565b90565b906105bd915461059a565b90565b6105cc60015f906105b2565b90565b6105d890610159565b90565b6105e4906105cf565b9052565b91906105fb905f602085019401906105db565b565b3461062d5761060d366004610120565b6106296106186105c0565b610620610112565b918291826105e8565b0390f35b610118565b3461066057610642366004610120565b61064a611663565b610652610112565b8061065c81610506565b0390f35b610118565b61066e90610159565b90565b61067a90610665565b9052565b9190610691905f60208501940190610671565b565b346106c3576106a3366004610120565b6106bf6106ae611671565b6106b6610112565b9182918261067e565b0390f35b610118565b346106f8576106d8366004610120565b6106f46106e361168a565b6106eb610112565b91829182610390565b0390f35b610118565b91906040838203126107255780610719610722925f86016101ec565b93602001610212565b90565b61011c565b346107595761074361073d3660046106fd565b90611749565b61074b610112565b8061075581610506565b0390f35b610118565b67ffffffffffffffff811161077c576107786020916103de565b0190565b6103e8565b9061079361078e8361075e565b610425565b918252565b5f7f352e302e30000000000000000000000000000000000000000000000000000000910152565b6107c96005610781565b906107d660208301610798565b565b6107e06107bf565b90565b6107eb6107d8565b90565b6107f66107e3565b90565b5190565b60209181520190565b5f5b838110610818575050905f910152565b806020918301518185015201610808565b6108486108516020936108569361083f816107f9565b938480936107fd565b95869101610806565b6103de565b0190565b61086f9160208201915f818403910152610829565b90565b346108a257610882366004610120565b61089e61088d6107ee565b610895610112565b9182918261085a565b0390f35b610118565b90916060828403126108dc576108d96108c2845f85016101ec565b936108d081602086016101ec565b936040016101ec565b90565b61011c565b34610910576108fa6108f43660046108a7565b91611b48565b610902610112565b8061090c81610506565b0390f35b610118565b61091e816102dc565b0361092557565b5f80fd5b9050359061093682610915565b565b919060a08382031261098957610950815f85016101ec565b9261095e82602083016101ec565b9261098661096f84604085016101ec565b9361097d8160608601610212565b93608001610929565b90565b61011c565b346109c0576109aa6109a1366004610938565b93929092611d2b565b6109b2610112565b806109bc81610506565b0390f35b610118565b906020828203126109de576109db915f016101ec565b90565b61011c565b34610a11576109fb6109f63660046109c5565b611da6565b610a03610112565b80610a0d81610506565b0390f35b610118565b60018060a01b031690565b610a31906008610a36930261033f565b610a16565b90565b90610a449154610a21565b90565b610a515f80610a39565b90565b34610a8457610a64366004610120565b610a80610a6f610a47565b610a77610112565b9182918261067e565b0390f35b610118565b5f80fd5b5f90565b5f1c90565b610aa2610aa791610a91565b610a16565b90565b610ab49054610a96565b90565b5f80fd5b60e01b90565b610aca906101cc565b90565b610ad681610ac1565b03610add57565b5f80fd5b90505190610aee82610acd565b565b90602082820312610b0957610b06915f01610ae1565b90565b61011c565b610b16610112565b3d5f823e3d90fd5b90565b610b35610b30610b3a92610b1e565b61013a565b61012f565b90565b610b4690610b21565b90565b610b529061013d565b90565b610b5e90610b49565b90565b610b69610a8d565b90610b966020610b80610b7b5f610aaa565b610665565b630542975c90610b8e610112565b938492610abb565b82528180610ba660048201610506565b03915afa80915f92610be0575b50155f14610bda57506001610bc457565b9050610bd7610bd25f610b3d565b610b55565b90565b90915090565b610c0291925060203d8111610c09575b610bfa81836103fc565b810190610af0565b905f610bb3565b503d610bf0565b5f90565b5f7f43616c6c6572206d75737420626520706f6f6c00000000000000000000000000910152565b610c4860136020926107fd565b610c5181610c14565b0190565b610c6a9060208101905f818303910152610c3b565b90565b610c769061012f565b90565b610c8281610c6d565b03610c8957565b5f80fd5b90503590610c9a82610c79565b565b9091606082840312610cd157610cce610cb7845f8501610c8d565b93610cc58160208601610c8d565b93604001610929565b90565b61011c565b610cdf90610159565b90565b5f910312610cec57565b61011c565b610cfa906101fb565b9052565b90959492610d4994610d38610d4292610d2e608096610d2460a088019c5f890190610383565b6020870190610383565b6040850190610383565b6060830190610cf1565b01906102e1565b565b610d549061013d565b90565b610d6090610d4b565b90565b610d6c90610159565b90565b610d7890610159565b90565b90505190610d88826101fe565b565b90602082820312610da357610da0915f01610d7b565b90565b61011c565b634e487b7160e01b5f52601160045260245ffd5b610dcb610dd1919392936101fb565b926101fb565b8201809211610ddc57565b610da8565b610ded610df291610a91565b61058f565b90565b610dff9054610de1565b90565b90505190610e0f82610915565b565b90602082820312610e2a57610e27915f01610e02565b90565b61011c565b916020610e50929493610e4960408201965f830190610383565b0190610cf1565b565b90959492610e9d94610e8c610e9692610e82608096610e7860a088019c5f890190610383565b6020870190610383565b6040850190610cf1565b6060830190610cf1565b0190610383565b565b60207f617368206c6f616e000000000000000000000000000000000000000000000000917f496e73756666696369656e742062616c616e636520746f20726570617920666c5f8201520152565b610ef960286040926107fd565b610f0281610e9f565b0190565b610f1b9060208101905f818303910152610eec565b90565b610f32610f2d610f3792610b1e565b61013a565b6101fb565b90565b610f46610f4b91610a91565b610343565b90565b610f589054610f3a565b90565b610f6a610f70919392936101fb565b926101fb565b8203918211610f7b57565b610da8565b610f8990610f1e565b9052565b90959492610fd894610fc7610fd192610fbd608096610fb360a088019c5f890190610383565b6020870190610383565b6040850190610cf1565b6060830190610f80565b0190610383565b565b610fe390610159565b90565b60409061100f611016949695939661100560608401985f850190610cf1565b6020830190610cf1565b0190610cf1565b565b919394909250611026610c10565b503361104a61104461103f61103a5f610aaa565b610665565b6101cc565b916101cc565b03611560576110636110739161106d9690810190610c9c565b9291969096610cd6565b95610cd6565b906110856110805f610aaa565b610665565b9062a718a991879085938593889091833b1561155b576110c66110bb935f979388946110af610112565b9a8b998a988997610abb565b875260048701610cfe565b03925af180156115565761152a575b5061111e60206110ec6110e788610d57565b610d63565b6370a08231906111136110fe30610d6f565b92611107610112565b95869485938493610abb565b835260048301610390565b03915afa80156115255761113b915f916114f7575b509484610dbc565b9061114d61114887610d57565b610d63565b602063095ea7b3916111676111626001610df5565b6105cf565b906111855f8a95611190611179610112565b97889687958694610abb565b845260048401610e2f565b03925af180156114f2576114c6575b506111b26111ad6001610df5565b6105cf565b602063f7d318099188906111e55f88956111f08c8a6111d030610d6f565b916111d9610112565b9a8b998a988997610abb565b875260048701610e52565b03925af19081156114c1575f91611493575b509161124c602061121a61121587610d57565b610d63565b6370a082319061124161122c30610d6f565b92611235610112565b95869485938493610abb565b835260048301610390565b03915afa90811561148e575f91611460575b5061127161126b836101fb565b916101fb565b1061143e57602061128961128486610d57565b610d63565b9163095ea7b3926112be5f6112a56112a082610aaa565b610665565b93956112c96112b2610112565b97889687958694610abb565b845260048401610e2f565b03925af180156114395761140d575b506112e25f610f1e565b91856112f66112f0836101fb565b916101fb565b1161135c575b5091929493909461135461134261133c6113367f433a748a5cc0601caaac2885db271290bee092018cdcfb93e7652eba112f598f96610fda565b96610fda565b96610fda565b9661134b610112565b93849384610fe6565b0390a4600190565b909150602061137361136e6001610df5565b6105cf565b63f7d31809906113b55f8a936113c061139661138f6002610f4e565b988d610f5b565b836113a030610d6f565b916113a9610112565b9a8b998a988997610abb565b875260048701610f8d565b03925af1908115611408575f916113da575b50905f6112fc565b6113fb915060203d8111611401575b6113f381836103fc565b810190610d8a565b5f6113d2565b503d6113e9565b610b0e565b61142d9060203d8111611432575b61142581836103fc565b810190610e11565b6112d8565b503d61141b565b610b0e565b611446610112565b62461bcd60e51b81528061145c60048201610f06565b0390fd5b611481915060203d8111611487575b61147981836103fc565b810190610d8a565b5f61125e565b503d61146f565b610b0e565b6114b4915060203d81116114ba575b6114ac81836103fc565b810190610d8a565b5f611202565b503d6114a2565b610b0e565b6114e69060203d81116114eb575b6114de81836103fc565b810190610e11565b61119f565b503d6114d4565b610b0e565b611518915060203d811161151e575b61151081836103fc565b810190610d8a565b5f611133565b503d611506565b610b0e565b611549905f3d811161154f575b61154181836103fc565b810190610ce2565b5f6110d5565b503d611537565b610b0e565b610ab7565b611568610112565b62461bcd60e51b81528061157e60048201610c55565b0390fd5b906115949161158f611dbd565b611596565b565b906115a9916115a481611e76565b611ee6565b565b906115b591611582565b565b5f90565b6115cc906115c7611ff2565b61161f565b90565b90565b5f1b90565b6115eb6115e66115f0926115cf565b6115d2565b610535565b90565b61161c7f360894a13ba1a3210667c828492db98dca3e2076cc3735a920a3ca505d382bbc6115d7565b90565b506116286115f3565b90565b61163b6116366115b7565b6115bb565b90565b611646612057565b61164e611650565b565b61166161165c5f610b3d565b6120ac565b565b61166b61163e565b565b5f90565b61167961166d565b506116835f610aaa565b90565b5f90565b611692611686565b506116a55f61169f612118565b01610f4e565b90565b906116ba916116b5612057565b6116bc565b565b6116cf6116ca602092610d57565b610d63565b9163a9059cbb926116fb5f6116e261168a565b93956117066116ef610112565b97889687958694610abb565b845260048401610e2f565b03925af1801561174457611718575b50565b6117389060203d811161173d575b61173081836103fc565b810190610e11565b611715565b503d611726565b610b0e565b90611753916116a8565b565b60401c90565b60ff1690565b61176d61177291611755565b61175b565b90565b61177f9054611761565b90565b67ffffffffffffffff1690565b61179b6117a091610a91565b611782565b90565b6117ad905461178f565b90565b67ffffffffffffffff1690565b6117d16117cc6117d692610b1e565b61013a565b6117b0565b90565b90565b6117f06117eb6117f5926117d9565b61013a565b6117b0565b90565b61180190610159565b90565b9061181767ffffffffffffffff916115d2565b9181191691161790565b61183561183061183a926117b0565b61013a565b6117b0565b90565b90565b9061185561185061185c92611821565b61183d565b8254611804565b9055565b60401b90565b9061187a68ff000000000000000091611860565b9181191691161790565b61188d906102dc565b90565b90565b906118a86118a36118af92611884565b611890565b8254611866565b9055565b6118bc906117dc565b9052565b91906118d3905f602085019401906118b3565b565b6118dd61213c565b926118f26118ec5f8601611775565b156102dc565b926118fe5f86016117a3565b8061191161190b5f6117bd565b916117b0565b1480611a32575b9061192c61192660016117dc565b916117b0565b1480611a0a575b61193e9091156102dc565b90816119f9575b506119d65761196e9261196361195b60016117dc565b5f8801611840565b846119c4575b611b05565b611976575b50565b611983905f809101611893565b60016119bb7fc7f505b2f371ae2175ee4913f4499e1f2633a7b5936321eed1cdaeb6115181d2916119b2610112565b918291826118c0565b0390a15f611973565b6119d160015f8801611893565b611969565b6119de610112565b63f92ee8a960e01b8152806119f560048201610506565b0390fd5b611a049150156102dc565b5f611945565b5061193e611a17306117f8565b3b611a2a611a245f610f1e565b916101fb565b149050611933565b5084611918565b611a429061013d565b90565b611a4e90611a39565b90565b90611a6260018060a01b03916115d2565b9181191691161790565b611a7590611a39565b90565b90565b90611a90611a8b611a9792611a6c565b611a78565b8254611a51565b9055565b611aa49061013d565b90565b611ab090611a9b565b90565b611abc90611a9b565b90565b90565b90611ad7611ad2611ade92611ab3565b611abf565b8254611a51565b9055565b90565b90611afa611af5611b0192610fda565b611ae2565b8254611a51565b9055565b611b38611b469392611b33611b2d611b3f94611b1f612151565b611b2833612179565b611a45565b5f611a7b565b611aa7565b6001611ac2565b6002611ae5565b565b90611b5392916118d5565b565b90611b6a94939291611b65612057565b611c5c565b565b604090611b95611b9c9496959396611b8b60608401985f850190610383565b6020830190610383565b01906102e1565b565b5190565b60209181520190565b611bca611bd3602093611bd893611bc181611b9e565b93848093611ba2565b95869101610806565b6103de565b0190565b61ffff1690565b611bf7611bf2611bfc92610b1e565b61013a565b611bdc565b90565b611c0890611be3565b9052565b611c5a94611c4582989795611c3b608096611c31611c52975f60a08901980190610383565b60208c0190610383565b60408a0190610cf1565b8782036060890152611bab565b940190611bff565b565b91611c7d611c8c929495939193611c71610112565b94859360208501611b6c565b602082018103825203826103fc565b90611c9e611c995f610aaa565b610665565b6342b0b77c611cac30610d6f565b9294935f91833b15611d2657611ce3611cd8935f97938894611ccc610112565b9a8b998a988997610abb565b875260048701611c0c565b03925af18015611d2157611cf5575b50565b611d14905f3d8111611d1a575b611d0c81836103fc565b810190610ce2565b5f611cf2565b503d611d02565b610b0e565b610ab7565b90611d3894939291611b55565b565b611d4b90611d46612057565b611d4d565b565b80611d68611d62611d5d5f610b3d565b6101cc565b916101cc565b14611d7857611d76906120ac565b565b611da2611d845f610b3d565b611d8c610112565b918291631e4fbdf760e01b835260048301610390565b0390fd5b611daf90611d3a565b565b611dba90610159565b90565b611dc630611db1565b611df8611df27f00000000000000000000000000000000000000000000000000000000000000006101cc565b916101cc565b148015611e29575b611e0657565b611e0e610112565b63703e46dd60e11b815280611e2560048201610506565b0390fd5b50611e32612184565b611e64611e5e7f00000000000000000000000000000000000000000000000000000000000000006101cc565b916101cc565b1415611e00565b50611e74612057565b565b611e7f90611e6b565b565b611e8a9061013d565b90565b611e9690611e81565b90565b611ea290610159565b90565b611eae81610535565b03611eb557565b5f80fd5b90505190611ec682611ea5565b565b90602082820312611ee157611ede915f01611eb9565b90565b61011c565b9190611f146020611efe611ef986611e8d565b611e99565b6352d1902d90611f0c610112565b938492610abb565b82528180611f2460048201610506565b03915afa80915f92611fc2575b50155f14611f6c575050906001611f4657505b565b611f6890611f52610112565b918291634c9c8ce360e01b835260048301610390565b0390fd5b9283611f87611f81611f7c6115f3565b610535565b91610535565b03611f9c57611f979293506121aa565b611f44565b611fbe84611fa8610112565b918291632a87526960e21b835260048301610545565b0390fd5b611fe491925060203d8111611feb575b611fdc81836103fc565b810190611ec8565b905f611f31565b503d611fd2565b611ffb30611db1565b61202d6120277f00000000000000000000000000000000000000000000000000000000000000006101cc565b916101cc565b0361203457565b61203c610112565b63703e46dd60e11b81528061205360048201610506565b0390fd5b61205f61168a565b61207861207261206d612233565b6101cc565b916101cc565b0361207f57565b6120a861208a612233565b612092610112565b91829163118cdaa760e01b835260048301610390565b0390fd5b6120b4612118565b6120cc6120c25f8301610f4e565b915f849101611ae5565b906121006120fa7f8be0079c531659141344cd1fd0a4f28419497f9722a3daafe3b4186f6b6457e093610fda565b91610fda565b91612109610112565b8061211381610506565b0390a3565b7f9016d09d72d40fdae2fd8ceac6b6234c7706214fd39c1cd1e609a0528c19930090565b61214461228b565b90565b61214f61229f565b565b612159612147565b565b61216c9061216761229f565b61216e565b565b61217790612345565b565b6121829061215b565b565b61218c611686565b506121a75f6121a161219c6115f3565b612350565b01610f4e565b90565b906121b482612353565b816121df7fbc7cd75a20ee27fd9adebab32041f755214dbc6bffa90cc0225b39da2e5c2d3b91610fda565b906121e8610112565b806121f281610506565b0390a26121fe81611b9e565b61221061220a5f610f1e565b916101fb565b115f146122245761222091612431565b505b565b505061222e6123af565b612222565b61223b611686565b503390565b90565b61225761225261225c92612240565b6115d2565b610535565b90565b6122887ff0c57e16840df040f15088dc2f81fe391c3923bec73e23a9662efc9c229c6a00612243565b90565b6122936115b7565b5061229c61225f565b90565b6122b06122aa612460565b156102dc565b6122b657565b6122be610112565b631afcd79f60e31b8152806122d560048201610506565b0390fd5b6122ea906122e561229f565b6122ec565b565b806123076123016122fc5f610b3d565b6101cc565b916101cc565b1461231757612315906120ac565b565b6123416123235f610b3d565b61232b610112565b918291631e4fbdf760e01b835260048301610390565b0390fd5b61234e906122d9565b565b90565b803b6123676123615f610f1e565b916101fb565b1461238957612387905f61238161237c6115f3565b612350565b01611ae5565b565b6123ab90612395610112565b918291634c9c8ce360e01b835260048301610390565b0390fd5b346123c26123bc5f610f1e565b916101fb565b116123c957565b6123d1610112565b63b398979f60e01b8152806123e860048201610506565b0390fd5b606090565b906124036123fe8361043a565b610425565b918252565b3d5f14612423576124183d6123f1565b903d5f602084013e5b565b61242b6123ec565b90612421565b5f8061245d9361243f6123ec565b508390602081019051915af490612454612408565b9091909161247e565b90565b612468610c10565b5061247b5f61247561213c565b01611775565b90565b906124929061248b6123ec565b50156102dc565b5f1461249e5750612509565b6124a782611b9e565b6124b96124b35f610f1e565b916101fb565b14806124ee575b6124c8575090565b6124ea906124d4610112565b918291639996b31560e01b835260048301610390565b0390fd5b50803b6125036124fd5f610f1e565b916101fb565b146124c0565b61251281611b9e565b61252461251e5f610f1e565b916101fb565b115f1461253357805190602001fd5b61253b610112565b63d6bda27560e01b81528061255260048201610506565b0390fdfea2646970667358221220332c719ace8318aa06431177fef484656d2780a26458cee504cdedee3c67761d64736f6c63430008160033","linkReferences":{}},"methodIdentifiers":{"ADDRESSES_PROVIDER()":"0542975c","POOL()":"7535d246","UPGRADE_INTERFACE_VERSION()":"ad3cb1cc","aave_v3_pool()":"f5f8bbbc","dex()":"692058c2","executeLiquidation(address,address,address,uint256,bool)":"d9802bc7","executeOperation(address,uint256,uint256,address,bytes)":"1b11d0ff","initialize(address,address,address)":"c0c53b8b","owner()":"8da5cb5b","proxiableUUID()":"52d1902d","renounceOwnership()":"715018a6","transferOwnership(address)":"f2fde38b","upgradeToAndCall(address,bytes)":"4f1ef286","usdc()":"3e413bee","withdrawToken(address,uint256)":"9e281a98"},"id":51}