{"abi":[{"type":"constructor","inputs":[],"stateMutability":"nonpayable"},{"type":"function","name":"ADDRESSES_PROVIDER","inputs":[],"outputs":[{"name":"","type":"address","internalType":"contract IPoolAddressesProvider"}],"stateMutability":"view"},{"type":"function","name":"POOL","inputs":[],"outputs":[{"name":"","type":"address","internalType":"contract IPool"}],"stateMutability":"view"},{"type":"function","name":"UPGRADE_INTERFACE_VERSION","inputs":[],"outputs":[{"name":"","type":"string","internalType":"string"}],"stateMutability":"view"},{"type":"function","name":"aave_v3_pool","inputs":[],"outputs":[{"name":"","type":"address","internalType":"contract IPool"}],"stateMutability":"view"},{"type":"function","name":"dex","inputs":[],"outputs":[{"name":"","type":"address","internalType":"contract IDex"}],"stateMutability":"view"},{"type":"function","name":"executeLiquidation","inputs":[{"name":"collateralAsset","type":"address","internalType":"address"},{"name":"debtAsset","type":"address","internalType":"address"},{"name":"user","type":"address","internalType":"address"}],"outputs":[],"stateMutability":"nonpayable"},{"type":"function","name":"executeOperation","inputs":[{"name":"asset","type":"address","internalType":"address"},{"name":"amount","type":"uint256","internalType":"uint256"},{"name":"premium","type":"uint256","internalType":"uint256"},{"name":"_initiator","type":"address","internalType":"address"},{"name":"params","type":"bytes","internalType":"bytes"}],"outputs":[{"name":"","type":"bool","internalType":"bool"}],"stateMutability":"nonpayable"},{"type":"function","name":"initialize","inputs":[{"name":"_aave_v3_pool","type":"address","internalType":"address"},{"name":"_dex","type":"address","internalType":"address"}],"outputs":[],"stateMutability":"nonpayable"},{"type":"function","name":"owner","inputs":[],"outputs":[{"name":"","type":"address","internalType":"address"}],"stateMutability":"view"},{"type":"function","name":"proxiableUUID","inputs":[],"outputs":[{"name":"","type":"bytes32","internalType":"bytes32"}],"stateMutability":"view"},{"type":"function","name":"renounceOwnership","inputs":[],"outputs":[],"stateMutability":"nonpayable"},{"type":"function","name":"transferOwnership","inputs":[{"name":"newOwner","type":"address","internalType":"address"}],"outputs":[],"stateMutability":"nonpayable"},{"type":"function","name":"upgradeToAndCall","inputs":[{"name":"newImplementation","type":"address","internalType":"address"},{"name":"data","type":"bytes","internalType":"bytes"}],"outputs":[],"stateMutability":"payable"},{"type":"function","name":"withdrawToken","inputs":[{"name":"token","type":"address","internalType":"address"},{"name":"amount","type":"uint256","internalType":"uint256"}],"outputs":[],"stateMutability":"nonpayable"},{"type":"event","name":"Initialized","inputs":[{"name":"version","type":"uint64","indexed":false,"internalType":"uint64"}],"anonymous":false},{"type":"event","name":"Liquidation","inputs":[{"name":"user","type":"address","indexed":true,"internalType":"address"},{"name":"asset","type":"address","indexed":true,"internalType":"address"},{"name":"amount","type":"uint256","indexed":false,"internalType":"uint256"},{"name":"collateralAsset","type":"address","indexed":true,"internalType":"address"},{"name":"collateralAmount","type":"uint256","indexed":false,"internalType":"uint256"}],"anonymous":false},{"type":"event","name":"OwnershipTransferred","inputs":[{"name":"previousOwner","type":"address","indexed":true,"internalType":"address"},{"name":"newOwner","type":"address","indexed":true,"internalType":"address"}],"anonymous":false},{"type":"event","name":"Upgraded","inputs":[{"name":"implementation","type":"address","indexed":true,"internalType":"address"}],"anonymous":false},{"type":"error","name":"AddressEmptyCode","inputs":[{"name":"target","type":"address","internalType":"address"}]},{"type":"error","name":"ERC1967InvalidImplementation","inputs":[{"name":"implementation","type":"address","internalType":"address"}]},{"type":"error","name":"ERC1967NonPayable","inputs":[]},{"type":"error","name":"FailedCall","inputs":[]},{"type":"error","name":"InvalidInitialization","inputs":[]},{"type":"error","name":"NotInitializing","inputs":[]},{"type":"error","name":"OwnableInvalidOwner","inputs":[{"name":"owner","type":"address","internalType":"address"}]},{"type":"error","name":"OwnableUnauthorizedAccount","inputs":[{"name":"account","type":"address","internalType":"address"}]},{"type":"error","name":"UUPSUnauthorizedCallContext","inputs":[]},{"type":"error","name":"UUPSUnsupportedProxiableUUID","inputs":[{"name":"slot","type":"bytes32","internalType":"bytes32"}]}],"bytecode":{"object":"0x60a080604052346100cc57306080527ff0c57e16840df040f15088dc2f81fe391c3923bec73e23a9662efc9c229c6a009081549060ff8260401c166100bd57506001600160401b036002600160401b031982821601610078575b6040516113fe90816100d1823960805181818161067d01526107630152f35b6001600160401b031990911681179091556040519081527fc7f505b2f371ae2175ee4913f4499e1f2633a7b5936321eed1cdaeb6115181d290602090a15f8080610059565b63f92ee8a960e01b8152600490fd5b5f80fdfe60806040526004361015610011575f80fd5b5f803560e01c80630542975c146110b75780631b11d0ff14610aa6578063485cc955146109375780634f1ef286146106e757806352d1902d1461066a578063692058c214610641578063715018a6146105d85780637535d246146105b15780638da5cb5b1461057c5780639e281a98146104ce578063ad3cb1cc1461045d578063d164ed011461010a578063f2fde38b146100dd5763f5f8bbbc146100b4575f80fd5b346100da57806003193601126100da57546040516001600160a01b039091168152602090f35b80fd5b50346100da5760203660031901126100da576101076100fa6110e3565b6101026112cc565b61125b565b80f35b50346100da5760603660031901126100da576101246110e3565b61012c6110f9565b6001600160a01b0391906044358381168082036104595761014b6112cc565b848654169060405190632fe4a15f60e21b8252600482015260c081602481855afa801561044e57879061040d575b670de0b6b3a7640000915010156103c857604051630150a5d760e21b815286959060208082600481305afa91821561039057839282918a9161039b575b5060046040518095819363e860accb60e01b8352165afa918215610390578892610358575b506040516328dd2d0160e01b81526001600160a01b03878116600483015286166024820152916101209081908490604490829088165afa92831561034d5789918a946102e0575b5050610234610267936102599261123a565b604080516001600160a01b039a8b169481019485529990971660208401529588920190565b03601f198101875286611123565b813b156102dc578580946102aa604051978896879586946310ac2ddf60e21b8652306004870152166024850152604484015260a0606484015260a4830190611161565b82608483015203925af180156102d1576102c15750f35b6102ca9061110f565b6100da5780f35b6040513d84823e3d90fd5b8580fd5b8194508092503d8311610346575b6102f88183611123565b81010312610342578082015160408301519260e081015164ffffffffff81160361033e5761026793610259926103346101006102349401611219565b5090945091610222565b8980fd5b8780fd5b503d6102ee565b6040513d8b823e3d90fd5b9080925081813d8311610389575b6103708183611123565b810103126103425751828116810361034257905f6101db565b503d610366565b6040513d8a823e3d90fd5b6103bb9150823d84116103c1575b6103b38183611123565b81019061119f565b5f6101b6565b503d6103a9565b60405162461bcd60e51b815260206004820152601f60248201527f4865616c746820666163746f722069732067726561746572207468616e2031006044820152606490fd5b5060c0813d60c011610446575b8161042760c09383611123565b810103126104425760a0670de0b6b3a7640000910151610179565b8680fd5b3d915061041a565b6040513d89823e3d90fd5b5f80fd5b50346100da57806003193601126100da57604051604081019080821067ffffffffffffffff8311176104ba576104b69160405260058152640352e302e360dc1b6020820152604051918291602083526020830190611161565b0390f35b634e487b7160e01b5f52604160045260245ffd5b50346100da5760403660031901126100da576104e86110e3565b6104f06112cc565b5f805160206113a98339815191525460405163a9059cbb60e01b81526001600160a01b039182166004820152602480359082015291602091839160449183918791165af180156102d157610542575080f35b6020813d602011610574575b8161055b60209383611123565b810103126105705761056c90611219565b5080f35b5080fd5b3d915061054e565b50346100da57806003193601126100da575f805160206113a9833981519152546040516001600160a01b039091168152602090f35b50346100da57806003193601126100da57546040516001600160a01b039091168152602090f35b50346100da57806003193601126100da576105f16112cc565b5f805160206113a983398151915280546001600160a01b031981169091555f906001600160a01b03167f8be0079c531659141344cd1fd0a4f28419497f9722a3daafe3b4186f6b6457e08280a380f35b50346100da57806003193601126100da576001546040516001600160a01b039091168152602090f35b50346100da57806003193601126100da577f00000000000000000000000000000000000000000000000000000000000000006001600160a01b031630036106d55760206040517f360894a13ba1a3210667c828492db98dca3e2076cc3735a920a3ca505d382bbc8152f35b60405163703e46dd60e11b8152600490fd5b5060403660031901126100da576106fc6110e3565b602491823567ffffffffffffffff8111610570573660238201121561057057806004013561072981611145565b936107376040519586611123565b81855260209182860193368883830101116102dc57818692898693018737870101526001600160a01b037f00000000000000000000000000000000000000000000000000000000000000008116308114908115610909575b506106d55761079c6112cc565b8116946040516352d1902d60e01b815283816004818a5afa8691816108da575b506107d957604051634c9c8ce360e01b8152600481018890528890fd5b8690887f360894a13ba1a3210667c828492db98dca3e2076cc3735a920a3ca505d382bbc918281036108c55750843b156108af575080546001600160a01b031916821790556040518692917fbc7cd75a20ee27fd9adebab32041f755214dbc6bffa90cc0225b39da2e5c2d3b8480a2815115610891575061056c9482915190845af4903d15610888573d61086c81611145565b9061087a6040519283611123565b81528581943d92013e611345565b60609250611345565b945050505050346108a0575080f35b63b398979f60e01b8152600490fd5b604051634c9c8ce360e01b815260048101849052fd5b60405190632a87526960e21b82526004820152fd5b9091508481813d8311610902575b6108f28183611123565b810103126104425751905f6107bc565b503d6108e8565b9050817f360894a13ba1a3210667c828492db98dca3e2076cc3735a920a3ca505d382bbc541614155f61078f565b50346100da5760403660031901126100da576109516110e3565b6109596110f9565b7ff0c57e16840df040f15088dc2f81fe391c3923bec73e23a9662efc9c229c6a009182549160ff8360401c16159267ffffffffffffffff811680159081610a9e575b6001149081610a94575b159081610a8b575b50610a795767ffffffffffffffff198116600117855583610a5a575b506109d2611304565b6109da611304565b6109e2611304565b6109eb3361125b565b84546001600160a01b039283166001600160a01b031991821617865560018054929093169116179055610a1c575080f35b68ff00000000000000001981541690557fc7f505b2f371ae2175ee4913f4499e1f2633a7b5936321eed1cdaeb6115181d2602060405160018152a180f35b68ffffffffffffffffff1916680100000000000000011784555f6109c9565b60405163f92ee8a960e01b8152600490fd5b9050155f6109ad565b303b1591506109a5565b85915061099b565b50346104595760a036600319011261045957610ac06110e3565b906064356001600160a01b03811603610459576084359067ffffffffffffffff8083116104595736602384011215610459578260040135908111610459573660248285010111610459575f546001600160a01b031633819003611072576040516370a0823160e01b81523060048201526020816024816001600160a01b038a165afa908115610fa2575f91611040575b5060243511610fec5760405163095ea7b360e01b81526001600160a01b0390911660048201526024803590820152602081806044810103815f6001600160a01b038a165af1908115610fa2578491610fad575b506040918101031261045957610bc76044610bc060248501611226565b9301611226565b5f549092906001600160a01b0316803b156104595760405162a718a960e01b81526001600160a01b0383811660048301528681166024830152851660448201525f1960648201525f608482018190529091829060a490829084905af18015610fa257610f8f575b50610c3d60443560243561123a565b6040516370a0823160e01b8152306004820152926020846024816001600160a01b0387165afa938415610e72578194610f5b575b5060015460405163095ea7b360e01b81526001600160a01b0390911660048201526024810185905260208180604481010381856001600160a01b0389165af180156102d157610f22575b506001545f805160206113a9833981519152546001600160a01b039182169116813b15610f1e5760405163d5bcb9b560e01b81526001600160a01b0386811660048301528916602482015260448101879052606481018590526084810191909152908290829060a490829084905af180156102d157908291610f0a575b50506040516370a0823160e01b81523060048201526020816024816001600160a01b038b165afa9081156102d1579083918391610ed5575b5010610e7f57805460405163095ea7b360e01b81526001600160a01b039091166004820152602481019290925260208280604481010381846001600160a01b038b165af18015610e7257610e14575b505060408051602435815260208101939093526001600160a01b0391821694821693909116917fad275fe017afe43f0a6e7b46bf3e3e9df267a25ade147288190402b123ade46b9190a4602060405160018152f35b6020823d602011610e6a575b81610e2d60209383611123565b810103126100da57507fad275fe017afe43f0a6e7b46bf3e3e9df267a25ade147288190402b123ade46b91610e63604092611219565b5091610dbf565b3d9150610e20565b50604051903d90823e3d90fd5b60405162461bcd60e51b815260206004820152602860248201527f496e73756666696369656e742062616c616e636520746f20726570617920666c60448201526730b9b4103637b0b760c11b6064820152608490fd5b9150506020813d602011610f02575b81610ef160209383611123565b81010312610459578290515f610d70565b3d9150610ee4565b610f139061110f565b6100da57805f610d38565b8280fd5b6020813d602011610f53575b81610f3b60209383611123565b8101031261057057610f4c90611219565b505f610cbb565b3d9150610f2e565b9093506020813d602011610f87575b81610f7760209383611123565b810103126104595751925f610c71565b3d9150610f6a565b610f9a91925061110f565b5f905f610c2e565b6040513d5f823e3d90fd5b90506020813d602011610fe4575b81610fc860209383611123565b8101031261045957604091610fdd8592611219565b5091610ba3565b3d9150610fbb565b60405162461bcd60e51b815260206004820152602660248201527f496e73756666696369656e742062616c616e636520746f206c6971756964617460448201526519481919589d60d21b6064820152608490fd5b90506020813d60201161106a575b8161105b60209383611123565b8101031261045957515f610b50565b3d915061104e565b60405162461bcd60e51b815260206004820152601b60248201527f43616c6c6572206d757374206265206161766520763320706f6f6c00000000006044820152606490fd5b34610459575f3660031901126104595760206110d16111be565b6040516001600160a01b039091168152f35b600435906001600160a01b038216820361045957565b602435906001600160a01b038216820361045957565b67ffffffffffffffff81116104ba57604052565b90601f8019910116810190811067ffffffffffffffff8211176104ba57604052565b67ffffffffffffffff81116104ba57601f01601f191660200190565b91908251928382525f5b84811061118b575050825f602080949584010152601f8019910116010190565b60208183018101518483018201520161116b565b9081602091031261045957516001600160a01b03811681036104595790565b5f54604051630150a5d760e21b815290602090829060049082906001600160a01b03165afa5f91816111f8575b506111f557505f90565b90565b61121291925060203d6020116103c1576103b38183611123565b905f6111eb565b5190811515820361045957565b35906001600160a01b038216820361045957565b9190820180921161124757565b634e487b7160e01b5f52601160045260245ffd5b6001600160a01b039081169081156112b4575f805160206113a983398151915280546001600160a01b031981168417909155167f8be0079c531659141344cd1fd0a4f28419497f9722a3daafe3b4186f6b6457e05f80a3565b604051631e4fbdf760e01b81525f6004820152602490fd5b5f805160206113a9833981519152546001600160a01b031633036112ec57565b60405163118cdaa760e01b8152336004820152602490fd5b60ff7ff0c57e16840df040f15088dc2f81fe391c3923bec73e23a9662efc9c229c6a005460401c161561133357565b604051631afcd79f60e31b8152600490fd5b9061136c575080511561135a57805190602001fd5b60405163d6bda27560e01b8152600490fd5b8151158061139f575b61137d575090565b604051639996b31560e01b81526001600160a01b039091166004820152602490fd5b50803b1561137556fe9016d09d72d40fdae2fd8ceac6b6234c7706214fd39c1cd1e609a0528c199300a2646970667358221220df4157edb8cb454c78a0dc8851f915dae17346fd9433a0c541d2a3ebd46ccf0864736f6c63430008160033","linkReferences":{}},"methodIdentifiers":{"ADDRESSES_PROVIDER()":"0542975c","POOL()":"7535d246","UPGRADE_INTERFACE_VERSION()":"ad3cb1cc","aave_v3_pool()":"f5f8bbbc","dex()":"692058c2","executeLiquidation(address,address,address)":"d164ed01","executeOperation(address,uint256,uint256,address,bytes)":"1b11d0ff","initialize(address,address)":"485cc955","owner()":"8da5cb5b","proxiableUUID()":"52d1902d","renounceOwnership()":"715018a6","transferOwnership(address)":"f2fde38b","upgradeToAndCall(address,bytes)":"4f1ef286","withdrawToken(address,uint256)":"9e281a98"},"id":48}