{"abi":[{"type":"constructor","inputs":[],"stateMutability":"nonpayable"},{"type":"function","name":"ADDRESSES_PROVIDER","inputs":[],"outputs":[{"name":"","type":"address","internalType":"contract IPoolAddressesProvider"}],"stateMutability":"view"},{"type":"function","name":"POOL","inputs":[],"outputs":[{"name":"","type":"address","internalType":"contract IPool"}],"stateMutability":"view"},{"type":"function","name":"UPGRADE_INTERFACE_VERSION","inputs":[],"outputs":[{"name":"","type":"string","internalType":"string"}],"stateMutability":"view"},{"type":"function","name":"aave_v3_pool","inputs":[],"outputs":[{"name":"","type":"address","internalType":"contract IPool"}],"stateMutability":"view"},{"type":"function","name":"dex","inputs":[],"outputs":[{"name":"","type":"address","internalType":"contract IDex"}],"stateMutability":"view"},{"type":"function","name":"executeLiquidation","inputs":[{"name":"collateralAsset","type":"address","internalType":"address"},{"name":"debtAsset","type":"address","internalType":"address"},{"name":"user","type":"address","internalType":"address"},{"name":"debtToCover","type":"uint256","internalType":"uint256"},{"name":"data","type":"bytes","internalType":"bytes"}],"outputs":[],"stateMutability":"nonpayable"},{"type":"function","name":"executeOperation","inputs":[{"name":"asset","type":"address","internalType":"address"},{"name":"amount","type":"uint256","internalType":"uint256"},{"name":"premium","type":"uint256","internalType":"uint256"},{"name":"_initiator","type":"address","internalType":"address"},{"name":"params","type":"bytes","internalType":"bytes"}],"outputs":[{"name":"","type":"bool","internalType":"bool"}],"stateMutability":"nonpayable"},{"type":"function","name":"initialize","inputs":[{"name":"_aave_v3_pool","type":"address","internalType":"address"},{"name":"_dex","type":"address","internalType":"address"}],"outputs":[],"stateMutability":"nonpayable"},{"type":"function","name":"owner","inputs":[],"outputs":[{"name":"","type":"address","internalType":"address"}],"stateMutability":"view"},{"type":"function","name":"proxiableUUID","inputs":[],"outputs":[{"name":"","type":"bytes32","internalType":"bytes32"}],"stateMutability":"view"},{"type":"function","name":"renounceOwnership","inputs":[],"outputs":[],"stateMutability":"nonpayable"},{"type":"function","name":"transferOwnership","inputs":[{"name":"newOwner","type":"address","internalType":"address"}],"outputs":[],"stateMutability":"nonpayable"},{"type":"function","name":"upgradeToAndCall","inputs":[{"name":"newImplementation","type":"address","internalType":"address"},{"name":"data","type":"bytes","internalType":"bytes"}],"outputs":[],"stateMutability":"payable"},{"type":"function","name":"withdrawToken","inputs":[{"name":"token","type":"address","internalType":"address"},{"name":"amount","type":"uint256","internalType":"uint256"}],"outputs":[],"stateMutability":"nonpayable"},{"type":"event","name":"Initialized","inputs":[{"name":"version","type":"uint64","indexed":false,"internalType":"uint64"}],"anonymous":false},{"type":"event","name":"Liquidation","inputs":[{"name":"user","type":"address","indexed":true,"internalType":"address"},{"name":"asset","type":"address","indexed":true,"internalType":"address"},{"name":"amount","type":"uint256","indexed":false,"internalType":"uint256"},{"name":"collateralAsset","type":"address","indexed":true,"internalType":"address"},{"name":"collateralAmount","type":"uint256","indexed":false,"internalType":"uint256"}],"anonymous":false},{"type":"event","name":"OwnershipTransferred","inputs":[{"name":"previousOwner","type":"address","indexed":true,"internalType":"address"},{"name":"newOwner","type":"address","indexed":true,"internalType":"address"}],"anonymous":false},{"type":"event","name":"SwapWithAggregator","inputs":[{"name":"target","type":"address","indexed":true,"internalType":"address"},{"name":"profitToken","type":"address","indexed":true,"internalType":"address"},{"name":"profit","type":"uint256","indexed":false,"internalType":"uint256"},{"name":"collateralAsset","type":"address","indexed":true,"internalType":"address"},{"name":"collateralBalance","type":"uint256","indexed":false,"internalType":"uint256"}],"anonymous":false},{"type":"event","name":"Upgraded","inputs":[{"name":"implementation","type":"address","indexed":true,"internalType":"address"}],"anonymous":false},{"type":"error","name":"AddressEmptyCode","inputs":[{"name":"target","type":"address","internalType":"address"}]},{"type":"error","name":"ERC1967InvalidImplementation","inputs":[{"name":"implementation","type":"address","internalType":"address"}]},{"type":"error","name":"ERC1967NonPayable","inputs":[]},{"type":"error","name":"FailedCall","inputs":[]},{"type":"error","name":"InvalidInitialization","inputs":[]},{"type":"error","name":"NotInitializing","inputs":[]},{"type":"error","name":"OwnableInvalidOwner","inputs":[{"name":"owner","type":"address","internalType":"address"}]},{"type":"error","name":"OwnableUnauthorizedAccount","inputs":[{"name":"account","type":"address","internalType":"address"}]},{"type":"error","name":"UUPSUnauthorizedCallContext","inputs":[]},{"type":"error","name":"UUPSUnsupportedProxiableUUID","inputs":[{"name":"slot","type":"bytes32","internalType":"bytes32"}]}],"bytecode":{"object":"0x60a080604052346100cc57306080527ff0c57e16840df040f15088dc2f81fe391c3923bec73e23a9662efc9c229c6a009081549060ff8260401c166100bd57506001600160401b036002600160401b031982821601610078575b604051611aba90816100d18239608051818181610a150152610b3c0152f35b6001600160401b031990911681179091556040519081527fc7f505b2f371ae2175ee4913f4499e1f2633a7b5936321eed1cdaeb6115181d290602090a15f8080610059565b63f92ee8a960e01b8152600490fd5b5f80fdfe60806040526004361015610011575f80fd5b5f3560e01c80630542975c146100ef5780631b11d0ff146100ea578063485cc955146100e55780634f1ef286146100e057806352d1902d146100db578063692058c2146100d6578063715018a6146100d15780637535d246146100b35780638da5cb5b146100cc5780639e281a98146100c7578063a19dd4b2146100c2578063ad3cb1cc146100bd578063f2fde38b146100b85763f5f8bbbc146100b3575f80fd5b610c22565b6110a4565b61104c565b610d0a565b610c7d565b610c49565b610bbb565b610b93565b610b2a565b6109d2565b6107e2565b61016d565b610102565b5f9103126100fe57565b5f80fd5b346100fe575f3660031901126100fe57602061011c6110f4565b6040516001600160a01b039091168152f35b6001600160a01b038116036100fe57565b9181601f840112156100fe5782359167ffffffffffffffff83116100fe57602083818601950101116100fe57565b346100fe5760a03660031901126100fe57600480359061018c8261012e565b6024359161019b60643561012e565b60843567ffffffffffffffff81116100fe576101ba903690840161013f565b5f5491949093916101db906001600160a01b03165b6001600160a01b031690565b946001600160a01b0394858716330361079557604080516370a0823160e01b808252308783019081529299888a16986020969295909491939091879082908190830103818d5afa80156104f75788915f91610778575b501061071e578789878d9a999795858e9a9896958b96016102519161115b565b9d5163095ea7b360e01b8082526001600160a01b03909416968101968752602087018c90529f9091169e9a169b999093909283918290819060400103915a905f91f180156104f757610701575b505f546102b3906001600160a01b03166101cf565b92833b156100fe578c5162a718a960e01b81526001600160a01b03808e16828c019081528184166020820152908c166040820152606081018990525f608082018190529195869182908490829060a00103925af180156104f757898d8f610334978a946106ee575b5051888152309281019283529687928391829160200190565b03915afa9788156104f757898d8f965f9b6106cf575b508a908961035a6044358d6111d4565b988994865115155f146105a85750505090610375949161145c565b8b519384523088850190815285908590819060200103818d5afa9384156104f7575f94610579575b5082841061051957848c8b8a5f87956103e96103c26101cf845460018060a01b031690565b9551978896879586948552840160209093929193604081019460018060a01b031681520152565b03925af180156104f7576104fc575b50818311610447575b50508851928352505060208101919091527fad275fe017afe43f0a6e7b46bf3e3e9df267a25ade147288190402b123ade46b9150604090a45160018152602090f35b0390f35b839291610464915f80516020611a258339815191525416926111e6565b8a5163a9059cbb60e01b81526001600160a01b039092169682019687526020870152948590819060400103815f8a5af19384156104f7577fad275fe017afe43f0a6e7b46bf3e3e9df267a25ade147288190402b123ade46b946104c9575b8080610401565b816104e892903d106104f0575b6104e0818361094e565b8101906111ac565b505f806104c2565b503d6104d6565b6110e9565b61051290853d87116104f0576104e0818361094e565b505f6103f8565b8b5162461bcd60e51b81526020818a018181526028918101919091527f496e73756666696369656e742062616c616e636520746f20726570617920666c60408201526730b9b4103637b0b760c11b606082015281906080010390fd5b0390fd5b61059a919450853d87116105a1575b610592818361094e565b81019061114c565b925f61039d565b503d610588565b6001546105f2975092955090915f91906105ca906001600160a01b03166101cf565b9251968795869485938c8552840160209093929193604081019460018060a01b031681520152565b03925af180156104f7576106b2575b50600154610617906001600160a01b03166101cf565b90835f80516020611a25833981519152541690823b156100fe5789928f8f908d6106845f968b889451998a988997889663d5bcb9b560e01b88528701936080939695919660a086019760018060a01b03948580921688521660208701526040860152606085015216910152565b03925af180156104f757610699575b50610375565b806106a66106ac92610935565b806100f4565b5f610693565b6106c890873d89116104f0576104e0818361094e565b505f610601565b6106e7919b50893d8b116105a157610592818361094e565b995f61034a565b806106a66106fb92610935565b5f61031b565b61071790863d88116104f0576104e0818361094e565b505f61029e565b8a5162461bcd60e51b81526020818a018181526026918101919091527f496e73756666696369656e742062616c616e636520746f206c6971756964617460408201526519481919589d60d21b606082015281906080010390fd5b61078f9150883d8a116105a157610592818361094e565b5f610231565b6105758460405191829162461bcd60e51b8352820160609060208152601b60208201527f43616c6c6572206d757374206265206161766520763320706f6f6c000000000060408201520190565b346100fe5760403660031901126100fe576004356107ff8161012e565b6024359061080c8261012e565b5f80516020611a65833981519152549167ffffffffffffffff60ff8460401c1615931680159081610919575b600114908161090f575b159081610906575b506108f4575f80516020611a65833981519152805467ffffffffffffffff1916600117905561087d91836108cb576111f3565b61088357005b5f80516020611a65833981519152805460ff60401b19169055604051600181527fc7f505b2f371ae2175ee4913f4499e1f2633a7b5936321eed1cdaeb6115181d290602090a1005b5f80516020611a65833981519152805460ff60401b1916680100000000000000001790556111f3565b60405163f92ee8a960e01b8152600490fd5b9050155f61084a565b303b159150610842565b849150610838565b634e487b7160e01b5f52604160045260245ffd5b67ffffffffffffffff811161094957604052565b610921565b90601f8019910116810190811067ffffffffffffffff82111761094957604052565b67ffffffffffffffff811161094957601f01601f191660200190565b81601f820112156100fe578035906109a382610970565b926109b1604051948561094e565b828452602083830101116100fe57815f926020809301838601378301015290565b60403660031901126100fe5760048035906109ec8261012e565b60243567ffffffffffffffff81116100fe57610a0b903690830161098c565b6001600160a01b037f00000000000000000000000000000000000000000000000000000000000000008116308114908115610b0f575b50610afe579060208392610a5361189e565b6040516352d1902d60e01b8152938491829088165afa5f9281610add575b50610a9f575050604051634c9c8ce360e01b81526001600160a01b0390921690820190815281906020010390fd5b83835f80516020611a458339815191528403610ac157610abf8383611904565b005b604051632a87526960e21b815290810184815281906020010390fd5b610af791935060203d6020116105a157610592818361094e565b915f610a71565b60405163703e46dd60e11b81528390fd5b9050815f80516020611a45833981519152541614155f610a41565b346100fe575f3660031901126100fe577f00000000000000000000000000000000000000000000000000000000000000006001600160a01b03163003610b815760206040515f80516020611a458339815191528152f35b60405163703e46dd60e11b8152600490fd5b346100fe575f3660031901126100fe576001546040516001600160a01b039091168152602090f35b346100fe575f3660031901126100fe57610bd361189e565b5f80516020611a2583398151915280546001600160a01b031981169091555f906001600160a01b03167f8be0079c531659141344cd1fd0a4f28419497f9722a3daafe3b4186f6b6457e08280a3005b346100fe575f3660031901126100fe575f546040516001600160a01b039091168152602090f35b346100fe575f3660031901126100fe575f80516020611a25833981519152546040516001600160a01b039091168152602090f35b346100fe5760403660031901126100fe57600435610c9a8161012e565b610ca261189e565b5f80516020611a258339815191525460405163a9059cbb60e01b81526001600160a01b039182166004820152602480359082015291602091839160449183915f91165af180156104f757610cf257005b610abf9060203d6020116104f0576104e0818361094e565b346100fe5760a03660031901126100fe576004803590610d298261012e565b602435610d358161012e565b604435610d418161012e565b6064359160843567ffffffffffffffff81116100fe57610d64903690860161013f565b92610d6d61189e565b5f54610d81906001600160a01b03166101cf565b60408051632fe4a15f60e21b81526001600160a01b03841689820190815292969194919260c0908290819060200103818a5afa80156104f757670de0b6b3a7640000915f91610fd1575b501015610f86578351630150a5d760e21b81526020939084818b81305afa80156104f75785915f91610f69575b50865163e860accb60e01b8152916001600160a01b039183908d90829085165afa9182156104f75788918c915f94610f3a575b5088516328dd2d0160e01b81526001600160a01b0393841692810192835292851660208301529192610120928392859291839182906040010392165afa9081156104f757610e83925f915f93610f01575b50506111d4565b97808911610ef7575b5091610ea391610eb1949386519b8c9586016112c5565b03601f19810188528761094e565b823b156100fe575f94610eda869251978896879586946310ac2ddf60e21b865230908601611305565b03925af180156104f757610eea57005b806106a6610abf92610935565b9750610ea3610e8c565b610f24935080919250903d10610f33575b610f1c818361094e565b810190611271565b50505050505091505f80610e7c565b503d610f12565b610f5b919450883d8a11610f62575b610f53818361094e565b8101906110d1565b925f610e2b565b503d610f49565b610f809150823d8411610f6257610f53818361094e565b5f610df8565b835162461bcd60e51b81526020818a01818152601f918101919091527f4865616c746820666163746f722069732067726561746572207468616e203100604082015281906060010390fd5b610ff3915060c03d60c011610fff575b610feb818361094e565b810190611243565b9450505050505f610dcb565b503d610fe1565b5f5b8381106110175750505f910152565b8181015183820152602001611008565b9060209161104081518092818552858086019101611006565b601f01601f1916010190565b346100fe575f3660031901126100fe57604051604081019080821067ffffffffffffffff831117610949576104439160405260058152640352e302e360dc1b6020820152604051918291602083526020830190611027565b346100fe5760203660031901126100fe57610abf6004356110c48161012e565b6110cc61189e565b61133d565b908160209103126100fe57516110e68161012e565b90565b6040513d5f823e3d90fd5b5f54604051630150a5d760e21b815290602090829060049082906001600160a01b03165afa5f918161112b575b506110e657505f90565b61114591925060203d602011610f6257610f53818361094e565b905f611121565b908160209103126100fe575190565b916060838303126100fe5782356111718161012e565b9260208101356111808161012e565b92604082013567ffffffffffffffff81116100fe576110e6920161098c565b519081151582036100fe57565b908160209103126100fe576110e69061119f565b634e487b7160e01b5f52601160045260245ffd5b919082018092116111e157565b6111c0565b919082039182116111e157565b906111fc6118d6565b6112046118d6565b61120c6118d6565b6112153361133d565b60018060a01b0390816bffffffffffffffffffffffff60a01b9316835f5416175f5516906001541617600155565b91908260c09103126100fe5781519160208101519160408201519160608101519160a0608083015192015190565b90816101209103126100fe5780519160208201519160408101519160608201519160808101519160a08201519160c08101519160e082015164ffffffffff811681036100fe576101006110e691930161119f565b6001600160a01b03918216815291166020820152606060408201819052810183905260809290918190848401375f828201840152601f01601f1916010190565b94935f936113389260809460018060a01b038092168952166020880152604087015260a0606087015260a0860190611027565b930152565b6001600160a01b03908116908115611396575f80516020611a2583398151915280546001600160a01b031981168417909155167f8be0079c531659141344cd1fd0a4f28419497f9722a3daafe3b4186f6b6457e05f80a3565b604051631e4fbdf760e01b81525f6004820152602490fd5b90916060828403126100fe5781516113c58161012e565b9260208301516113d48161012e565b9260408101519067ffffffffffffffff82116100fe570181601f820112156100fe57805161140181610970565b9261140f604051948561094e565b818452602082840101116100fe576110e69160208085019101611006565b3d15611457573d9061143e82610970565b9161144c604051938461094e565b82523d5f602084013e565b606090565b939093929192611477825192602080809583010191016113ae565b604080516370a0823160e01b808252306004808401919091526001600160a01b039687169a95871699939891979596919590949192909186826024818f5afa9283156104f7578488918d945f9661187f575b50169d8e8c51808096819463095ea7b360e01b83528c8301916115009260209093929193604081019460018060a01b031681520152565b03915a905f91f19081156104f7575f928392611862575b508781519101828d5af161152961142d565b90156117eb575087518781523085820190815290919086908390819003602001818e5afa80156104f757611564925f916117ce575b506111e6565b9416881461175d575b50620186a083106117115784519384523081850190815282908590819060200103818b5afa9384156104f7575f946116f2575b5082611682575b836115e6575b5050915191825260208201527f14233ca0bd4739a6a7f226fceb49ccfb881dfcbdf00875f38ae40ff5cc909d669080604081015b0390a4565b5f80516020611a2583398151915254855163a9059cbb60e01b81526001600160a01b0390911691810191825260208201859052949082908690819003604001815f8c5af19182156104f7577f14233ca0bd4739a6a7f226fceb49ccfb881dfcbdf00875f38ae40ff5cc909d66956115e193611664575b5050936115ad565b8161167a92903d106104f0576104e0818361094e565b505f8061165c565b5f80516020611a2583398151915254855163a9059cbb60e01b81526001600160a01b039091168282019081526020810185905283908290819060400103815f8c5af180156104f7576116d5575b506115a7565b6116eb90833d85116104f0576104e0818361094e565b505f6116cf565b61170a919450823d84116105a157610592818361094e565b925f6115a0565b61057590855191829162461bcd60e51b8352820160609060208152601e60208201527f676f742075736463206973206c657373207468616e20302e312055534443000060408201520190565b90928181106117775790611770916111e6565b915f61156d565b855162461bcd60e51b815260208186018181526023918101919091527f676f742075736463206973206c657373207468616e20616d6f756e74546f526560408201526270617960e81b606082015281906080010390fd5b6117e59150873d89116105a157610592818361094e565b5f61155e565b85858a835115155f1461180057505081519101fd5b61057592505191829162461bcd60e51b8352820160809060208152602d60208201527f7377617020776974682061676772656761746f72206661696c6564207769746860408201526c08195b5c1d1e481c995cdd5b1d609a1b60608201520190565b61187890893d8b116104f0576104e0818361094e565b505f611517565b611897919650833d85116105a157610592818361094e565b945f6114c9565b5f80516020611a25833981519152546001600160a01b031633036118be57565b60405163118cdaa760e01b8152336004820152602490fd5b60ff5f80516020611a658339815191525460401c16156118f257565b604051631afcd79f60e31b8152600490fd5b90813b15611988575f80516020611a4583398151915280546001600160a01b0319166001600160a01b0384169081179091557fbc7cd75a20ee27fd9adebab32041f755214dbc6bffa90cc0225b39da2e5c2d3b5f80a280511561196d5761196a916119a9565b50565b50503461197657565b60405163b398979f60e01b8152600490fd5b604051634c9c8ce360e01b81526001600160a01b0383166004820152602490fd5b5f806110e693602081519101845af46119c061142d565b91906119e857508051156119d657805190602001fd5b60405163d6bda27560e01b8152600490fd5b81511580611a1b575b6119f9575090565b604051639996b31560e01b81526001600160a01b039091166004820152602490fd5b50803b156119f156fe9016d09d72d40fdae2fd8ceac6b6234c7706214fd39c1cd1e609a0528c199300360894a13ba1a3210667c828492db98dca3e2076cc3735a920a3ca505d382bbcf0c57e16840df040f15088dc2f81fe391c3923bec73e23a9662efc9c229c6a00a264697066735822122016b96f24a56671bbac67319793bf315f9adba4d806df94b8d89cb7a8a5bc3aa964736f6c63430008160033","linkReferences":{}},"methodIdentifiers":{"ADDRESSES_PROVIDER()":"0542975c","POOL()":"7535d246","UPGRADE_INTERFACE_VERSION()":"ad3cb1cc","aave_v3_pool()":"f5f8bbbc","dex()":"692058c2","executeLiquidation(address,address,address,uint256,bytes)":"a19dd4b2","executeOperation(address,uint256,uint256,address,bytes)":"1b11d0ff","initialize(address,address)":"485cc955","owner()":"8da5cb5b","proxiableUUID()":"52d1902d","renounceOwnership()":"715018a6","transferOwnership(address)":"f2fde38b","upgradeToAndCall(address,bytes)":"4f1ef286","withdrawToken(address,uint256)":"9e281a98"},"id":57}