{"abi":[{"type":"constructor","inputs":[],"stateMutability":"nonpayable"},{"type":"function","name":"ADDRESSES_PROVIDER","inputs":[],"outputs":[{"name":"","type":"address","internalType":"contract IPoolAddressesProvider"}],"stateMutability":"view"},{"type":"function","name":"POOL","inputs":[],"outputs":[{"name":"","type":"address","internalType":"contract IPool"}],"stateMutability":"view"},{"type":"function","name":"UPGRADE_INTERFACE_VERSION","inputs":[],"outputs":[{"name":"","type":"string","internalType":"string"}],"stateMutability":"view"},{"type":"function","name":"aave_v3_pool","inputs":[],"outputs":[{"name":"","type":"address","internalType":"contract IPool"}],"stateMutability":"view"},{"type":"function","name":"dex","inputs":[],"outputs":[{"name":"","type":"address","internalType":"contract IDex"}],"stateMutability":"view"},{"type":"function","name":"executeLiquidation","inputs":[{"name":"collateralAsset","type":"address","internalType":"address"},{"name":"debtAsset","type":"address","internalType":"address"},{"name":"user","type":"address","internalType":"address"},{"name":"amount","type":"uint256","internalType":"uint256"},{"name":"receiveAToken","type":"bool","internalType":"bool"}],"outputs":[],"stateMutability":"nonpayable"},{"type":"function","name":"executeOperation","inputs":[{"name":"asset","type":"address","internalType":"address"},{"name":"amount","type":"uint256","internalType":"uint256"},{"name":"premium","type":"uint256","internalType":"uint256"},{"name":"_initiator","type":"address","internalType":"address"},{"name":"params","type":"bytes","internalType":"bytes"}],"outputs":[{"name":"","type":"bool","internalType":"bool"}],"stateMutability":"nonpayable"},{"type":"function","name":"initialize","inputs":[{"name":"_aave_v3_pool","type":"address","internalType":"address"},{"name":"_dex","type":"address","internalType":"address"},{"name":"_usdc","type":"address","internalType":"address"}],"outputs":[],"stateMutability":"nonpayable"},{"type":"function","name":"owner","inputs":[],"outputs":[{"name":"","type":"address","internalType":"address"}],"stateMutability":"view"},{"type":"function","name":"proxiableUUID","inputs":[],"outputs":[{"name":"","type":"bytes32","internalType":"bytes32"}],"stateMutability":"view"},{"type":"function","name":"renounceOwnership","inputs":[],"outputs":[],"stateMutability":"nonpayable"},{"type":"function","name":"transferOwnership","inputs":[{"name":"newOwner","type":"address","internalType":"address"}],"outputs":[],"stateMutability":"nonpayable"},{"type":"function","name":"upgradeToAndCall","inputs":[{"name":"newImplementation","type":"address","internalType":"address"},{"name":"data","type":"bytes","internalType":"bytes"}],"outputs":[],"stateMutability":"payable"},{"type":"function","name":"usdc","inputs":[],"outputs":[{"name":"","type":"address","internalType":"address"}],"stateMutability":"view"},{"type":"function","name":"withdrawToken","inputs":[{"name":"token","type":"address","internalType":"address"},{"name":"amount","type":"uint256","internalType":"uint256"}],"outputs":[],"stateMutability":"nonpayable"},{"type":"event","name":"Initialized","inputs":[{"name":"version","type":"uint64","indexed":false,"internalType":"uint64"}],"anonymous":false},{"type":"event","name":"Liquidation","inputs":[{"name":"user","type":"address","indexed":true,"internalType":"address"},{"name":"asset","type":"address","indexed":true,"internalType":"address"},{"name":"amount","type":"uint256","indexed":false,"internalType":"uint256"},{"name":"collateralAsset","type":"address","indexed":true,"internalType":"address"},{"name":"collateralAmount","type":"uint256","indexed":false,"internalType":"uint256"},{"name":"actualAmountToSwap","type":"uint256","indexed":false,"internalType":"uint256"}],"anonymous":false},{"type":"event","name":"OwnershipTransferred","inputs":[{"name":"previousOwner","type":"address","indexed":true,"internalType":"address"},{"name":"newOwner","type":"address","indexed":true,"internalType":"address"}],"anonymous":false},{"type":"event","name":"Upgraded","inputs":[{"name":"implementation","type":"address","indexed":true,"internalType":"address"}],"anonymous":false},{"type":"error","name":"AddressEmptyCode","inputs":[{"name":"target","type":"address","internalType":"address"}]},{"type":"error","name":"ERC1967InvalidImplementation","inputs":[{"name":"implementation","type":"address","internalType":"address"}]},{"type":"error","name":"ERC1967NonPayable","inputs":[]},{"type":"error","name":"FailedCall","inputs":[]},{"type":"error","name":"InvalidInitialization","inputs":[]},{"type":"error","name":"NotInitializing","inputs":[]},{"type":"error","name":"OwnableInvalidOwner","inputs":[{"name":"owner","type":"address","internalType":"address"}]},{"type":"error","name":"OwnableUnauthorizedAccount","inputs":[{"name":"account","type":"address","internalType":"address"}]},{"type":"error","name":"UUPSUnauthorizedCallContext","inputs":[]},{"type":"error","name":"UUPSUnsupportedProxiableUUID","inputs":[{"name":"slot","type":"bytes32","internalType":"bytes32"}]}],"bytecode":{"object":"0x60a080604052346100cc57306080527ff0c57e16840df040f15088dc2f81fe391c3923bec73e23a9662efc9c229c6a009081549060ff8260401c166100bd57506001600160401b036002600160401b031982821601610078575b60405161119190816100d182396080518181816105b7015261069d0152f35b6001600160401b031990911681179091556040519081527fc7f505b2f371ae2175ee4913f4499e1f2633a7b5936321eed1cdaeb6115181d290602090a15f8080610059565b63f92ee8a960e01b8152600490fd5b5f80fdfe60806040526004361015610011575f80fd5b5f803560e01c80630542975c14610e475780631b11d0ff146108a25780633e413bee146108795780634f1ef2861461062157806352d1902d146105a4578063692058c21461057b578063715018a6146105125780637535d246146104eb5780638da5cb5b146104b65780639e281a9814610416578063ad3cb1cc146103b9578063c0c53b8b14610232578063d9802bc714610115578063f2fde38b146100e85763f5f8bbbc146100bf575f80fd5b346100e557806003193601126100e557546040516001600160a01b039091168152602090f35b80fd5b50346100e55760203660031901126100e557610112610105610e73565b61010d61105f565b610fee565b80f35b50346100e55760a03660031901126100e55761012f610e73565b610137610e89565b90610140610e9f565b9160843580151580910361022e5761015661105f565b6040519260018060a01b0394858092166020860152166040840152606083015260608252608082019180831067ffffffffffffffff84111761021a578493836040528085541690813b1561021657858593849282966310ac2ddf60e21b85523060848401521660a482015260643560c482015260a060e48201526101de610124820182610f07565b610104820183905203607f1901925af1801561020b576101fb5750f35b61020490610eb5565b6100e55780f35b6040513d84823e3d90fd5b8580fd5b634e487b7160e01b5f52604160045260245ffd5b5f80fd5b50346100e55760603660031901126100e55761024c610e73565b610254610e89565b9061025d610e9f565b907ff0c57e16840df040f15088dc2f81fe391c3923bec73e23a9662efc9c229c6a009283549260ff8460401c16159367ffffffffffffffff8116801590816103b1575b60011490816103a7575b15908161039e575b5061038c5767ffffffffffffffff19811660011786558461036d575b506102d7611097565b6102df611097565b6102e7611097565b6102f033610fee565b60018060a01b038092816bffffffffffffffffffffffff60a01b951685895416178855168360015416176001551690600254161760025561032f575080f35b68ff00000000000000001981541690557fc7f505b2f371ae2175ee4913f4499e1f2633a7b5936321eed1cdaeb6115181d2602060405160018152a180f35b68ffffffffffffffffff1916680100000000000000011785555f6102ce565b60405163f92ee8a960e01b8152600490fd5b9050155f6102b2565b303b1591506102aa565b8691506102a0565b50346100e557806003193601126100e557604051604081019080821067ffffffffffffffff83111761021a576104129160405260058152640352e302e360dc1b6020820152604051918291602083526020830190610f07565b0390f35b50346100e55760403660031901126100e557610430610e73565b61043861105f565b5f8051602061113c8339815191525460405163a9059cbb60e01b81526001600160a01b039182166004820152602480359082015291602091839160449183918791165af1801561020b5761048a575080f35b6104ab9060203d6020116104af575b6104a38183610ec9565b810190610fd6565b5080f35b503d610499565b50346100e557806003193601126100e5575f8051602061113c833981519152546040516001600160a01b039091168152602090f35b50346100e557806003193601126100e557546040516001600160a01b039091168152602090f35b50346100e557806003193601126100e55761052b61105f565b5f8051602061113c83398151915280546001600160a01b031981169091555f906001600160a01b03167f8be0079c531659141344cd1fd0a4f28419497f9722a3daafe3b4186f6b6457e08280a380f35b50346100e557806003193601126100e5576001546040516001600160a01b039091168152602090f35b50346100e557806003193601126100e5577f00000000000000000000000000000000000000000000000000000000000000006001600160a01b0316300361060f5760206040517f360894a13ba1a3210667c828492db98dca3e2076cc3735a920a3ca505d382bbc8152f35b60405163703e46dd60e11b8152600490fd5b5060403660031901126100e557610636610e73565b602491823567ffffffffffffffff8111610875573660238201121561087557806004013561066381610eeb565b936106716040519586610ec9565b818552602091828601933688838301011161021657818692898693018737870101526001600160a01b037f00000000000000000000000000000000000000000000000000000000000000008116308114908115610847575b5061060f576106d661105f565b8116946040516352d1902d60e01b815283816004818a5afa869181610814575b5061071357604051634c9c8ce360e01b8152600481018890528890fd5b8690887f360894a13ba1a3210667c828492db98dca3e2076cc3735a920a3ca505d382bbc918281036107ff5750843b156107e9575080546001600160a01b031916821790556040518692917fbc7cd75a20ee27fd9adebab32041f755214dbc6bffa90cc0225b39da2e5c2d3b8480a28151156107cb57506104ab9482915190845af4903d156107c2573d6107a681610eeb565b906107b46040519283610ec9565b81528581943d92013e6110d8565b606092506110d8565b945050505050346107da575080f35b63b398979f60e01b8152600490fd5b604051634c9c8ce360e01b815260048101849052fd5b60405190632a87526960e21b82526004820152fd5b9091508481813d8311610840575b61082c8183610ec9565b8101031261083c5751905f6106f6565b8680fd5b503d610822565b9050817f360894a13ba1a3210667c828492db98dca3e2076cc3735a920a3ca505d382bbc541614155f6106c9565b5080fd5b50346100e557806003193601126100e5576002546040516001600160a01b039091168152602090f35b503461022e5760a036600319011261022e576108bc610e73565b906064356001600160a01b0381160361022e576084359067ffffffffffffffff80831161022e573660238401121561022e57826004013590811161022e57820136602482011161022e575f546001600160a01b03169033829003610e025783606091031261022e5761093060248401610fc2565b90606461093f60448601610fc2565b94013580151580910361022e57813b1561022e5760405162a718a960e01b81526001600160a01b03848116600483015287811660248084019190915290871660448301523560648201526084810191909152905f90829060a490829084905af18015610df757610de4575b506040516370a0823160e01b8152306004820152916020836024816001600160a01b0386165afa928315610d70578193610db0575b5060015460405163095ea7b360e01b81526001600160a01b0390911660048201526024810184905260208180604481010381856001600160a01b0388165af1801561020b57610d91575b506044356024350160243511610d7d5780602060018060a01b036001541660a46040518095819363f7d3180960e01b835260018060a01b038916600484015260018060a01b038c1660248401526044356024350160448401528960648401523060848401525af1918215610d70578192610d3c575b506040516370a0823160e01b81523060048201526020816024816001600160a01b038b165afa90811561020b578291610d0a575b506044356024350111610cb457805460405163095ea7b360e01b81526001600160a01b039091166004820152604480356024803591909101908301526020908290819081010381856001600160a01b038c165af1801561020b57610c95575b508091808511610b94575b505060408051602435815260208101949094528301526001600160a01b039081169381169216907f433a748a5cc0601caaac2885db271290bee092018cdcfb93e7652eba112f598f90606090a4602060405160018152f35b6001546002549293506001600160a01b03908116929186039116858211610c81575f8051602061113c8339815191525460405163360462bf60e11b81526001600160a01b038781166004830152602482019390935260448101939093526064830185905216608482015290602090829060a490829086905af1918215610c755791610c23575b50816060610b3c565b90506020813d602011610c6d575b81610c3e60209383610ec9565b8101031261022e57517f433a748a5cc0601caaac2885db271290bee092018cdcfb93e7652eba112f598f610c1a565b3d9150610c31565b604051903d90823e3d90fd5b634e487b7160e01b84526011600452602484fd5b610cad9060203d6020116104af576104a38183610ec9565b505f610b31565b60405162461bcd60e51b815260206004820152602860248201527f496e73756666696369656e742062616c616e636520746f20726570617920666c60448201526730b9b4103637b0b760c11b6064820152608490fd5b90506020813d602011610d34575b81610d2560209383610ec9565b8101031261022e57515f610ad2565b3d9150610d18565b9091506020813d602011610d68575b81610d5860209383610ec9565b8101031261022e5751905f610a9e565b3d9150610d4b565b50604051903d90823e3d90fd5b634e487b7160e01b81526011600452602490fd5b610da99060203d6020116104af576104a38183610ec9565b505f610a29565b9092506020813d602011610ddc575b81610dcc60209383610ec9565b8101031261022e5751915f6109df565b3d9150610dbf565b610def919250610eb5565b5f905f6109aa565b6040513d5f823e3d90fd5b60405162461bcd60e51b815260206004820152601b60248201527f43616c6c6572206d757374206265206161766520763320706f6f6c00000000006044820152606490fd5b3461022e575f36600319011261022e576020610e61610f45565b6040516001600160a01b039091168152f35b600435906001600160a01b038216820361022e57565b602435906001600160a01b038216820361022e57565b604435906001600160a01b038216820361022e57565b67ffffffffffffffff811161021a57604052565b90601f8019910116810190811067ffffffffffffffff82111761021a57604052565b67ffffffffffffffff811161021a57601f01601f191660200190565b91908251928382525f5b848110610f31575050825f602080949584010152601f8019910116010190565b602081830181015184830182015201610f11565b5f54604051630150a5d760e21b81526001600160a01b03916020908290600490829086165afa9182915f93610f83575b5050610f8057505f90565b90565b909192506020813d602011610fba575b81610fa060209383610ec9565b8101031261022e5751908116810361022e57905f80610f75565b3d9150610f93565b35906001600160a01b038216820361022e57565b9081602091031261022e5751801515810361022e5790565b6001600160a01b03908116908115611047575f8051602061113c83398151915280546001600160a01b031981168417909155167f8be0079c531659141344cd1fd0a4f28419497f9722a3daafe3b4186f6b6457e05f80a3565b604051631e4fbdf760e01b81525f6004820152602490fd5b5f8051602061113c833981519152546001600160a01b0316330361107f57565b60405163118cdaa760e01b8152336004820152602490fd5b60ff7ff0c57e16840df040f15088dc2f81fe391c3923bec73e23a9662efc9c229c6a005460401c16156110c657565b604051631afcd79f60e31b8152600490fd5b906110ff57508051156110ed57805190602001fd5b60405163d6bda27560e01b8152600490fd5b81511580611132575b611110575090565b604051639996b31560e01b81526001600160a01b039091166004820152602490fd5b50803b1561110856fe9016d09d72d40fdae2fd8ceac6b6234c7706214fd39c1cd1e609a0528c199300a2646970667358221220d1994acf7dd3b6021dcaf71fe8099081f4b8dddd7e4c311a7b09fc648b2d118c64736f6c63430008160033","linkReferences":{}},"methodIdentifiers":{"ADDRESSES_PROVIDER()":"0542975c","POOL()":"7535d246","UPGRADE_INTERFACE_VERSION()":"ad3cb1cc","aave_v3_pool()":"f5f8bbbc","dex()":"692058c2","executeLiquidation(address,address,address,uint256,bool)":"d9802bc7","executeOperation(address,uint256,uint256,address,bytes)":"1b11d0ff","initialize(address,address,address)":"c0c53b8b","owner()":"8da5cb5b","proxiableUUID()":"52d1902d","renounceOwnership()":"715018a6","transferOwnership(address)":"f2fde38b","upgradeToAndCall(address,bytes)":"4f1ef286","usdc()":"3e413bee","withdrawToken(address,uint256)":"9e281a98"},"id":51}