{"abi":[{"type":"constructor","inputs":[],"stateMutability":"nonpayable"},{"type":"function","name":"ADDRESSES_PROVIDER","inputs":[],"outputs":[{"name":"","type":"address","internalType":"contract IPoolAddressesProvider"}],"stateMutability":"view"},{"type":"function","name":"POOL","inputs":[],"outputs":[{"name":"","type":"address","internalType":"contract IPool"}],"stateMutability":"view"},{"type":"function","name":"UPGRADE_INTERFACE_VERSION","inputs":[],"outputs":[{"name":"","type":"string","internalType":"string"}],"stateMutability":"view"},{"type":"function","name":"aave_v3_pool","inputs":[],"outputs":[{"name":"","type":"address","internalType":"contract IPool"}],"stateMutability":"view"},{"type":"function","name":"dex","inputs":[],"outputs":[{"name":"","type":"address","internalType":"contract IDex"}],"stateMutability":"view"},{"type":"function","name":"executeLiquidation","inputs":[{"name":"collateralAsset","type":"address","internalType":"address"},{"name":"debtAsset","type":"address","internalType":"address"},{"name":"user","type":"address","internalType":"address"},{"name":"amount","type":"uint256","internalType":"uint256"}],"outputs":[],"stateMutability":"nonpayable"},{"type":"function","name":"executeOperation","inputs":[{"name":"asset","type":"address","internalType":"address"},{"name":"amount","type":"uint256","internalType":"uint256"},{"name":"premium","type":"uint256","internalType":"uint256"},{"name":"_initiator","type":"address","internalType":"address"},{"name":"params","type":"bytes","internalType":"bytes"}],"outputs":[{"name":"","type":"bool","internalType":"bool"}],"stateMutability":"nonpayable"},{"type":"function","name":"initialize","inputs":[{"name":"_aave_v3_pool","type":"address","internalType":"address"},{"name":"_dex","type":"address","internalType":"address"},{"name":"_usdc","type":"address","internalType":"address"}],"outputs":[],"stateMutability":"nonpayable"},{"type":"function","name":"owner","inputs":[],"outputs":[{"name":"","type":"address","internalType":"address"}],"stateMutability":"view"},{"type":"function","name":"proxiableUUID","inputs":[],"outputs":[{"name":"","type":"bytes32","internalType":"bytes32"}],"stateMutability":"view"},{"type":"function","name":"renounceOwnership","inputs":[],"outputs":[],"stateMutability":"nonpayable"},{"type":"function","name":"transferOwnership","inputs":[{"name":"newOwner","type":"address","internalType":"address"}],"outputs":[],"stateMutability":"nonpayable"},{"type":"function","name":"upgradeToAndCall","inputs":[{"name":"newImplementation","type":"address","internalType":"address"},{"name":"data","type":"bytes","internalType":"bytes"}],"outputs":[],"stateMutability":"payable"},{"type":"function","name":"usdc","inputs":[],"outputs":[{"name":"","type":"address","internalType":"address"}],"stateMutability":"view"},{"type":"function","name":"withdrawToken","inputs":[{"name":"token","type":"address","internalType":"address"},{"name":"amount","type":"uint256","internalType":"uint256"}],"outputs":[],"stateMutability":"nonpayable"},{"type":"event","name":"Initialized","inputs":[{"name":"version","type":"uint64","indexed":false,"internalType":"uint64"}],"anonymous":false},{"type":"event","name":"Liquidation","inputs":[{"name":"user","type":"address","indexed":true,"internalType":"address"},{"name":"asset","type":"address","indexed":true,"internalType":"address"},{"name":"amount","type":"uint256","indexed":false,"internalType":"uint256"},{"name":"collateralAsset","type":"address","indexed":true,"internalType":"address"},{"name":"collateralAmount","type":"uint256","indexed":false,"internalType":"uint256"},{"name":"actualAmountToSwap","type":"uint256","indexed":false,"internalType":"uint256"}],"anonymous":false},{"type":"event","name":"OwnershipTransferred","inputs":[{"name":"previousOwner","type":"address","indexed":true,"internalType":"address"},{"name":"newOwner","type":"address","indexed":true,"internalType":"address"}],"anonymous":false},{"type":"event","name":"Upgraded","inputs":[{"name":"implementation","type":"address","indexed":true,"internalType":"address"}],"anonymous":false},{"type":"error","name":"AddressEmptyCode","inputs":[{"name":"target","type":"address","internalType":"address"}]},{"type":"error","name":"ERC1967InvalidImplementation","inputs":[{"name":"implementation","type":"address","internalType":"address"}]},{"type":"error","name":"ERC1967NonPayable","inputs":[]},{"type":"error","name":"FailedCall","inputs":[]},{"type":"error","name":"InvalidInitialization","inputs":[]},{"type":"error","name":"NotInitializing","inputs":[]},{"type":"error","name":"OwnableInvalidOwner","inputs":[{"name":"owner","type":"address","internalType":"address"}]},{"type":"error","name":"OwnableUnauthorizedAccount","inputs":[{"name":"account","type":"address","internalType":"address"}]},{"type":"error","name":"UUPSUnauthorizedCallContext","inputs":[]},{"type":"error","name":"UUPSUnsupportedProxiableUUID","inputs":[{"name":"slot","type":"bytes32","internalType":"bytes32"}]}],"bytecode":{"object":"0x60a080604052346100cc57306080527ff0c57e16840df040f15088dc2f81fe391c3923bec73e23a9662efc9c229c6a009081549060ff8260401c166100bd57506001600160401b036002600160401b031982821601610078575b60405161125290816100d182396080518181816104b9015261059f0152f35b6001600160401b031990911681179091556040519081527fc7f505b2f371ae2175ee4913f4499e1f2633a7b5936321eed1cdaeb6115181d290602090a15f8080610059565b63f92ee8a960e01b8152600490fd5b5f80fdfe60806040526004361015610011575f80fd5b5f803560e01c80630542975c14610f0857806305c3786d14610d5a5780631b11d0ff146107a85780633e413bee1461077f5780634f1ef2861461052357806352d1902d146104a6578063692058c21461047d578063715018a6146104145780637535d246146103ed5780638da5cb5b146103b85780639e281a981461030d578063ad3cb1cc1461029c578063c0c53b8b14610115578063f2fde38b146100e85763f5f8bbbc146100bf575f80fd5b346100e557806003193601126100e557546040516001600160a01b039091168152602090f35b80fd5b50346100e55760203660031901126100e557610112610105610f34565b61010d611120565b6110af565b80f35b50346100e55760603660031901126100e55761012f610f34565b610137610f4a565b90610140610f60565b907ff0c57e16840df040f15088dc2f81fe391c3923bec73e23a9662efc9c229c6a009283549260ff8460401c16159367ffffffffffffffff811680159081610294575b600114908161028a575b159081610281575b5061026f5767ffffffffffffffff198116600117865584610250575b506101ba611158565b6101c2611158565b6101ca611158565b6101d3336110af565b60018060a01b038092816bffffffffffffffffffffffff60a01b9516858954161788551683600154161760015516906002541617600255610212575080f35b68ff00000000000000001981541690557fc7f505b2f371ae2175ee4913f4499e1f2633a7b5936321eed1cdaeb6115181d2602060405160018152a180f35b68ffffffffffffffffff1916680100000000000000011785555f6101b1565b60405163f92ee8a960e01b8152600490fd5b9050155f610195565b303b15915061018d565b869150610183565b50346100e557806003193601126100e557604051604081019080821067ffffffffffffffff8311176102f9576102f59160405260058152640352e302e360dc1b6020820152604051918291602083526020830190610fc8565b0390f35b634e487b7160e01b5f52604160045260245ffd5b50346100e55760403660031901126100e557610327610f34565b61032f611120565b5f805160206111fd8339815191525460405163a9059cbb60e01b81526001600160a01b039182166004820152602480359082015291602091839160449183918791165af180156103ad57610381575080f35b6103a29060203d6020116103a6575b61039a8183610f8a565b810190611097565b5080f35b503d610390565b6040513d84823e3d90fd5b50346100e557806003193601126100e5575f805160206111fd833981519152546040516001600160a01b039091168152602090f35b50346100e557806003193601126100e557546040516001600160a01b039091168152602090f35b50346100e557806003193601126100e55761042d611120565b5f805160206111fd83398151915280546001600160a01b031981169091555f906001600160a01b03167f8be0079c531659141344cd1fd0a4f28419497f9722a3daafe3b4186f6b6457e08280a380f35b50346100e557806003193601126100e5576001546040516001600160a01b039091168152602090f35b50346100e557806003193601126100e5577f00000000000000000000000000000000000000000000000000000000000000006001600160a01b031630036105115760206040517f360894a13ba1a3210667c828492db98dca3e2076cc3735a920a3ca505d382bbc8152f35b60405163703e46dd60e11b8152600490fd5b5060403660031901126100e557610538610f34565b602491823567ffffffffffffffff811161077b573660238201121561077b57806004013561056581610fac565b936105736040519586610f8a565b818552602091828601933688838301011161077757818692898693018737870101526001600160a01b037f00000000000000000000000000000000000000000000000000000000000000008116308114908115610749575b50610511576105d8611120565b8116946040516352d1902d60e01b815283816004818a5afa869181610716575b5061061557604051634c9c8ce360e01b8152600481018890528890fd5b8690887f360894a13ba1a3210667c828492db98dca3e2076cc3735a920a3ca505d382bbc918281036107015750843b156106eb575080546001600160a01b031916821790556040518692917fbc7cd75a20ee27fd9adebab32041f755214dbc6bffa90cc0225b39da2e5c2d3b8480a28151156106cd57506103a29482915190845af4903d156106c4573d6106a881610fac565b906106b66040519283610f8a565b81528581943d92013e611199565b60609250611199565b945050505050346106dc575080f35b63b398979f60e01b8152600490fd5b604051634c9c8ce360e01b815260048101849052fd5b60405190632a87526960e21b82526004820152fd5b9091508481813d8311610742575b61072e8183610f8a565b8101031261073e5751905f6105f8565b8680fd5b503d610724565b9050817f360894a13ba1a3210667c828492db98dca3e2076cc3735a920a3ca505d382bbc541614155f6105cb565b8580fd5b5080fd5b50346100e557806003193601126100e5576002546040516001600160a01b039091168152602090f35b50346100e55760a03660031901126100e5576107c2610f34565b906064356001600160a01b03811603610b77576084359067ffffffffffffffff80831161077b573660238401121561077b57826004013590811161077b57820136602482011161077b5781546001600160a01b03169033829003610d155783606091031261077b5761083660248401611083565b90606461084560448601611083565b940135801515809103610d1157813b15610d115760405162a718a960e01b81526001600160a01b03848116600483015287811660248084019190915290871660448301523560648201526084810191909152908390829060a490829084905af18015610d0657908391610cf2575b50506040516370a0823160e01b8152306004820152916020836024816001600160a01b0386165afa928315610c7e578193610cbe575b5060015460405163095ea7b360e01b81526001600160a01b0390911660048201526024810184905260208180604481010381856001600160a01b0388165af180156103ad57610c9f575b506044356024350160243511610c8b5780602060018060a01b036001541660a46040518095819363f7d3180960e01b835260018060a01b038916600484015260018060a01b038c1660248401526044356024350160448401528960648401523060848401525af1918215610c7e578192610c4a575b506040516370a0823160e01b81523060048201526020816024816001600160a01b038b165afa9081156103ad578291610c18575b506044356024350111610bc257805460405163095ea7b360e01b81526001600160a01b039091166004820152604480356024803591909101908301526020908290819081010381856001600160a01b038c165af180156103ad57610ba3575b508091808511610a9e575b505060408051602435815260208101949094528301526001600160a01b039081169381169216907f433a748a5cc0601caaac2885db271290bee092018cdcfb93e7652eba112f598f90606090a4602060405160018152f35b6001546002549293506001600160a01b03908116929186039116858211610b8f575f805160206111fd8339815191525460405163360462bf60e11b81526001600160a01b038781166004830152602482019390935260448101939093526064830185905216608482015290602090829060a490829086905af1918215610b835791610b2d575b50816060610a46565b90506020813d602011610b7b575b81610b4860209383610f8a565b81010312610b7757517f433a748a5cc0601caaac2885db271290bee092018cdcfb93e7652eba112f598f610b24565b5f80fd5b3d9150610b3b565b604051903d90823e3d90fd5b634e487b7160e01b84526011600452602484fd5b610bbb9060203d6020116103a65761039a8183610f8a565b505f610a3b565b60405162461bcd60e51b815260206004820152602860248201527f496e73756666696369656e742062616c616e636520746f20726570617920666c60448201526730b9b4103637b0b760c11b6064820152608490fd5b90506020813d602011610c42575b81610c3360209383610f8a565b81010312610b7757515f6109dc565b3d9150610c26565b9091506020813d602011610c76575b81610c6660209383610f8a565b81010312610b775751905f6109a8565b3d9150610c59565b50604051903d90823e3d90fd5b634e487b7160e01b81526011600452602490fd5b610cb79060203d6020116103a65761039a8183610f8a565b505f610933565b9092506020813d602011610cea575b81610cda60209383610f8a565b81010312610b775751915f6108e9565b3d9150610ccd565b610cfb90610f76565b61077b57815f6108b3565b6040513d85823e3d90fd5b8380fd5b60405162461bcd60e51b815260206004820152601b60248201527f43616c6c6572206d757374206265206161766520763320706f6f6c00000000006044820152606490fd5b5034610b77576080366003190112610b7757610d74610f34565b610d7c610f4a565b610d84610f60565b91610d8d611120565b5f54604051632fe4a15f60e21b81526001600160a01b0394851660048201819052918516919060c081602481865afa8015610e7b575f90610ecb575b670de0b6b3a764000091501015610e8657846040519316602084015260408301525f606083015260608252608082019382851067ffffffffffffffff8611176102f95784604052813b15610b77575f8593849282966310ac2ddf60e21b85523060848401521660a482015260643560c482015260a060e4820152610e51610124820182610fc8565b610104820183905203607f1901925af18015610e7b57610e6f575080f35b610e799150610f76565b005b6040513d5f823e3d90fd5b60405162461bcd60e51b815260206004820152601f60248201527f4865616c746820666163746f722069732067726561746572207468616e2031006044820152606490fd5b5060c0813d60c011610f00575b81610ee560c09383610f8a565b81010312610b775760a0670de0b6b3a7640000910151610dc9565b3d9150610ed8565b34610b77575f366003190112610b77576020610f22611006565b6040516001600160a01b039091168152f35b600435906001600160a01b0382168203610b7757565b602435906001600160a01b0382168203610b7757565b604435906001600160a01b0382168203610b7757565b67ffffffffffffffff81116102f957604052565b90601f8019910116810190811067ffffffffffffffff8211176102f957604052565b67ffffffffffffffff81116102f957601f01601f191660200190565b91908251928382525f5b848110610ff2575050825f602080949584010152601f8019910116010190565b602081830181015184830182015201610fd2565b5f54604051630150a5d760e21b81526001600160a01b03916020908290600490829086165afa9182915f93611044575b505061104157505f90565b90565b909192506020813d60201161107b575b8161106160209383610f8a565b81010312610b7757519081168103610b7757905f80611036565b3d9150611054565b35906001600160a01b0382168203610b7757565b90816020910312610b7757518015158103610b775790565b6001600160a01b03908116908115611108575f805160206111fd83398151915280546001600160a01b031981168417909155167f8be0079c531659141344cd1fd0a4f28419497f9722a3daafe3b4186f6b6457e05f80a3565b604051631e4fbdf760e01b81525f6004820152602490fd5b5f805160206111fd833981519152546001600160a01b0316330361114057565b60405163118cdaa760e01b8152336004820152602490fd5b60ff7ff0c57e16840df040f15088dc2f81fe391c3923bec73e23a9662efc9c229c6a005460401c161561118757565b604051631afcd79f60e31b8152600490fd5b906111c057508051156111ae57805190602001fd5b60405163d6bda27560e01b8152600490fd5b815115806111f3575b6111d1575090565b604051639996b31560e01b81526001600160a01b039091166004820152602490fd5b50803b156111c956fe9016d09d72d40fdae2fd8ceac6b6234c7706214fd39c1cd1e609a0528c199300a2646970667358221220e3e7be08dc680c517d187a0e4bfe6f84a2a2373c1fe6c51fb51bf8212450439a64736f6c63430008160033","linkReferences":{}},"methodIdentifiers":{"ADDRESSES_PROVIDER()":"0542975c","POOL()":"7535d246","UPGRADE_INTERFACE_VERSION()":"ad3cb1cc","aave_v3_pool()":"f5f8bbbc","dex()":"692058c2","executeLiquidation(address,address,address,uint256)":"05c3786d","executeOperation(address,uint256,uint256,address,bytes)":"1b11d0ff","initialize(address,address,address)":"c0c53b8b","owner()":"8da5cb5b","proxiableUUID()":"52d1902d","renounceOwnership()":"715018a6","transferOwnership(address)":"f2fde38b","upgradeToAndCall(address,bytes)":"4f1ef286","usdc()":"3e413bee","withdrawToken(address,uint256)":"9e281a98"},"id":48}