{"abi":[{"type":"constructor","inputs":[],"stateMutability":"nonpayable"},{"type":"function","name":"ADDRESSES_PROVIDER","inputs":[],"outputs":[{"name":"","type":"address","internalType":"contract IPoolAddressesProvider"}],"stateMutability":"view"},{"type":"function","name":"POOL","inputs":[],"outputs":[{"name":"","type":"address","internalType":"contract IPool"}],"stateMutability":"view"},{"type":"function","name":"UPGRADE_INTERFACE_VERSION","inputs":[],"outputs":[{"name":"","type":"string","internalType":"string"}],"stateMutability":"view"},{"type":"function","name":"aave_v3_pool","inputs":[],"outputs":[{"name":"","type":"address","internalType":"contract IPool"}],"stateMutability":"view"},{"type":"function","name":"dex","inputs":[],"outputs":[{"name":"","type":"address","internalType":"contract IDex"}],"stateMutability":"view"},{"type":"function","name":"executeLiquidation","inputs":[{"name":"collateralAsset","type":"address","internalType":"address"},{"name":"debtAsset","type":"address","internalType":"address"},{"name":"user","type":"address","internalType":"address"},{"name":"data","type":"bytes","internalType":"bytes"}],"outputs":[],"stateMutability":"nonpayable"},{"type":"function","name":"executeOperation","inputs":[{"name":"asset","type":"address","internalType":"address"},{"name":"amount","type":"uint256","internalType":"uint256"},{"name":"premium","type":"uint256","internalType":"uint256"},{"name":"_initiator","type":"address","internalType":"address"},{"name":"params","type":"bytes","internalType":"bytes"}],"outputs":[{"name":"","type":"bool","internalType":"bool"}],"stateMutability":"nonpayable"},{"type":"function","name":"initialize","inputs":[{"name":"_aave_v3_pool","type":"address","internalType":"address"},{"name":"_dex","type":"address","internalType":"address"}],"outputs":[],"stateMutability":"nonpayable"},{"type":"function","name":"owner","inputs":[],"outputs":[{"name":"","type":"address","internalType":"address"}],"stateMutability":"view"},{"type":"function","name":"proxiableUUID","inputs":[],"outputs":[{"name":"","type":"bytes32","internalType":"bytes32"}],"stateMutability":"view"},{"type":"function","name":"renounceOwnership","inputs":[],"outputs":[],"stateMutability":"nonpayable"},{"type":"function","name":"transferOwnership","inputs":[{"name":"newOwner","type":"address","internalType":"address"}],"outputs":[],"stateMutability":"nonpayable"},{"type":"function","name":"upgradeToAndCall","inputs":[{"name":"newImplementation","type":"address","internalType":"address"},{"name":"data","type":"bytes","internalType":"bytes"}],"outputs":[],"stateMutability":"payable"},{"type":"function","name":"withdrawToken","inputs":[{"name":"token","type":"address","internalType":"address"},{"name":"amount","type":"uint256","internalType":"uint256"}],"outputs":[],"stateMutability":"nonpayable"},{"type":"event","name":"Initialized","inputs":[{"name":"version","type":"uint64","indexed":false,"internalType":"uint64"}],"anonymous":false},{"type":"event","name":"Liquidation","inputs":[{"name":"user","type":"address","indexed":true,"internalType":"address"},{"name":"asset","type":"address","indexed":true,"internalType":"address"},{"name":"amount","type":"uint256","indexed":false,"internalType":"uint256"},{"name":"collateralAsset","type":"address","indexed":true,"internalType":"address"},{"name":"collateralAmount","type":"uint256","indexed":false,"internalType":"uint256"}],"anonymous":false},{"type":"event","name":"OwnershipTransferred","inputs":[{"name":"previousOwner","type":"address","indexed":true,"internalType":"address"},{"name":"newOwner","type":"address","indexed":true,"internalType":"address"}],"anonymous":false},{"type":"event","name":"SwapWithAggregator","inputs":[{"name":"target","type":"address","indexed":true,"internalType":"address"},{"name":"profitToken","type":"address","indexed":true,"internalType":"address"},{"name":"profit","type":"uint256","indexed":false,"internalType":"uint256"},{"name":"collateralAsset","type":"address","indexed":true,"internalType":"address"},{"name":"collateralBalance","type":"uint256","indexed":false,"internalType":"uint256"}],"anonymous":false},{"type":"event","name":"Upgraded","inputs":[{"name":"implementation","type":"address","indexed":true,"internalType":"address"}],"anonymous":false},{"type":"error","name":"AddressEmptyCode","inputs":[{"name":"target","type":"address","internalType":"address"}]},{"type":"error","name":"ERC1967InvalidImplementation","inputs":[{"name":"implementation","type":"address","internalType":"address"}]},{"type":"error","name":"ERC1967NonPayable","inputs":[]},{"type":"error","name":"FailedCall","inputs":[]},{"type":"error","name":"InvalidInitialization","inputs":[]},{"type":"error","name":"NotInitializing","inputs":[]},{"type":"error","name":"OwnableInvalidOwner","inputs":[{"name":"owner","type":"address","internalType":"address"}]},{"type":"error","name":"OwnableUnauthorizedAccount","inputs":[{"name":"account","type":"address","internalType":"address"}]},{"type":"error","name":"UUPSUnauthorizedCallContext","inputs":[]},{"type":"error","name":"UUPSUnsupportedProxiableUUID","inputs":[{"name":"slot","type":"bytes32","internalType":"bytes32"}]}],"bytecode":{"object":"0x60a080604052346100cc57306080527ff0c57e16840df040f15088dc2f81fe391c3923bec73e23a9662efc9c229c6a009081549060ff8260401c166100bd57506001600160401b036002600160401b031982821601610078575b604051611a7a90816100d1823960805181818161097b0152610aa20152f35b6001600160401b031990911681179091556040519081527fc7f505b2f371ae2175ee4913f4499e1f2633a7b5936321eed1cdaeb6115181d290602090a15f8080610059565b63f92ee8a960e01b8152600490fd5b5f80fdfe60806040526004361015610011575f80fd5b5f3560e01c80630542975c146100ef5780631b11d0ff146100ea578063485cc955146100e55780634f1ef286146100e057806352d1902d146100db57806357590b78146100d6578063692058c2146100d1578063715018a6146100cc5780637535d246146100b35780638da5cb5b146100c75780639e281a98146100c2578063ad3cb1cc146100bd578063f2fde38b146100b85763f5f8bbbc146100b3575f80fd5b610e79565b610fec565b610fa7565b610ed4565b610ea0565b610e12565b610dea565b610af9565b610a90565b610938565b61072c565b61016d565b610102565b5f9103126100fe57565b5f80fd5b346100fe575f3660031901126100fe57602061011c61103c565b6040516001600160a01b039091168152f35b6001600160a01b038116036100fe57565b9181601f840112156100fe5782359167ffffffffffffffff83116100fe57602083818601950101116100fe57565b346100fe5760a03660031901126100fe57600480359061018c8261012e565b60243561019a60643561012e565b60843567ffffffffffffffff81116100fe576101b9903690840161013f565b5f5490949192906101da906001600160a01b03165b6001600160a01b031690565b6001600160a01b039490939085851633036106df57604080516370a0823160e01b808252308483019081529299878a1698602096909492939092879082908190830103818d5afa801561046c5788915f916106c2575b5010610668579161024c828b99979593948a99979501906110a3565b98919b909b169a16978b5185818c815f8161028a8d63095ea7b360e01b9b8c84528d840160209093929193604081019460018060a01b031681520152565b03925af1801561046c5761064b575b505f546102ae906001600160a01b03166101ce565b803b156100fe578c5162a718a960e01b81526001600160a01b03808e16828801908152818b166020820152908c1660408201525f1960608201525f608082018190529192839182908490829060a00103925af1801561046c57610638575b508b518281523085820190815290989086908a90819003602001818f5afa97881561046c578d8d9a5f9a610619575b50878a916103508361034b611108565b611324565b61035c6044358c61115c565b8551909d90156104fe5792935050506103759350611436565b8a519081523083820190815284908290819060200103818c5afa801561046c5787915f916104d1575b5010610471575f54839291906103e9906103c0906001600160a01b03166101ce565b8c519283526001600160a01b031692820192835260208301979097529586918291604090910190565b03815f8a5af193841561046c577fad275fe017afe43f0a6e7b46bf3e3e9df267a25ade147288190402b123ade46b9461043e575b505086519081526020810191909152604090a45160018152602090f35b0390f35b8161045d92903d10610465575b61045581836108b4565b8101906110f4565b505f8061041d565b503d61044b565b611031565b895162461bcd60e51b815260208184018181526028918101919091527f496e73756666696369656e742062616c616e636520746f20726570617920666c60408201526730b9b4103637b0b760c11b606082015281906080010390fd5b0390fd5b6104f19150853d87116104f7575b6104e981836108b4565b810190611094565b5f61039e565b503d6104df565b909192939450885f8961054561051e6101ce60015460018060a01b031690565b9551978896879586948552840160209093929193604081019460018060a01b031681520152565b03925af1801561046c576105fc575b5060015461056a906001600160a01b03166101ce565b915f805160206119e5833981519152541690823b156100fe578d5163d5bcb9b560e01b81526001600160a01b03808f168289019081529281166020840152604083018b9052606083018c9052909216608082015290915f9183919082908490829060a00103925af1801561046c576105e3575b50610375565b806105f06105f69261087f565b806100f4565b5f6105dd565b61061290873d89116104655761045581836108b4565b505f610554565b889a5061063290893d8b116104f7576104e981836108b4565b9961033b565b806105f06106459261087f565b5f61030c565b61066190863d88116104655761045581836108b4565b505f610299565b8a5162461bcd60e51b815260208187018181526026918101919091527f496e73756666696369656e742062616c616e636520746f206c6971756964617460408201526519481919589d60d21b606082015281906080010390fd5b6106d99150883d8a116104f7576104e981836108b4565b5f610230565b6104cd9060405191829162461bcd60e51b8352820160609060208152601b60208201527f43616c6c6572206d757374206265206161766520763320706f6f6c000000000060408201520190565b346100fe5760403660031901126100fe576004356107498161012e565b602435906107568261012e565b5f80516020611a25833981519152549167ffffffffffffffff60ff8460401c1615931680159081610863575b6001149081610859575b159081610850575b5061083e575f80516020611a25833981519152805467ffffffffffffffff191660011790556107c7918361081557611169565b6107cd57005b5f80516020611a25833981519152805460ff60401b19169055604051600181527fc7f505b2f371ae2175ee4913f4499e1f2633a7b5936321eed1cdaeb6115181d290602090a1005b5f80516020611a25833981519152805460ff60401b191668010000000000000000179055611169565b60405163f92ee8a960e01b8152600490fd5b9050155f610794565b303b15915061078c565b849150610782565b634e487b7160e01b5f52604160045260245ffd5b67ffffffffffffffff811161089357604052565b61086b565b6040810190811067ffffffffffffffff82111761089357604052565b90601f8019910116810190811067ffffffffffffffff82111761089357604052565b67ffffffffffffffff811161089357601f01601f191660200190565b81601f820112156100fe57803590610909826108d6565b9261091760405194856108b4565b828452602083830101116100fe57815f926020809301838601378301015290565b60403660031901126100fe5760048035906109528261012e565b60243567ffffffffffffffff81116100fe5761097190369083016108f2565b6001600160a01b037f00000000000000000000000000000000000000000000000000000000000000008116308114908115610a75575b50610a645790602083926109b961185e565b6040516352d1902d60e01b8152938491829088165afa5f9281610a43575b50610a05575050604051634c9c8ce360e01b81526001600160a01b0390921690820190815281906020010390fd5b83835f80516020611a058339815191528403610a2757610a2583836118c4565b005b604051632a87526960e21b815290810184815281906020010390fd5b610a5d91935060203d6020116104f7576104e981836108b4565b915f6109d7565b60405163703e46dd60e11b81528390fd5b9050815f80516020611a05833981519152541614155f6109a7565b346100fe575f3660031901126100fe577f00000000000000000000000000000000000000000000000000000000000000006001600160a01b03163003610ae75760206040515f80516020611a058339815191528152f35b60405163703e46dd60e11b8152600490fd5b346100fe5760803660031901126100fe576004803590610b188261012e565b602435610b248161012e565b60443590610b318261012e565b60643567ffffffffffffffff81116100fe57610b50903690850161013f565b9190610b5a61185e565b5f54610b6e906001600160a01b03166101ce565b60408051632fe4a15f60e21b81526001600160a01b03871688820190815292959193919260c090829081906020010381895afa801561046c57670de0b6b3a7640000915f91610db5575b501015610d6a57825190630150a5d760e21b825260209283838a81305afa91821561046c5784935f93610d4b575b50855163e860accb60e01b81526001600160a01b0395909384908c90829089165afa801561046c57610c5c8b9189955f91610d1e575b5088516328dd2d0160e01b81526001600160a01b03968716938101938452958c166020840152949661012095869389939192849290918391604090910190565b0392165afa94851561046c57610c9f95610c9194610c84925f915f93610ce5575b505061115c565b9886519b8c95860161123b565b03601f1981018852876108b4565b823b156100fe575f94610cc8869251978896879586946310ac2ddf60e21b86523090860161127b565b03925af1801561046c57610cd857005b806105f0610a259261087f565b610d08935080919250903d10610d17575b610d0081836108b4565b8101906111e7565b50505050505091505f80610c7d565b503d610cf6565b610d3e9150873d8911610d44575b610d3681836108b4565b810190611019565b5f610c1c565b503d610d2c565b610d63919350843d8611610d4457610d3681836108b4565b915f610be6565b825162461bcd60e51b81526020818901818152601f918101919091527f4865616c746820666163746f722069732067726561746572207468616e203100604082015281906060010390fd5b610dd7915060c03d60c011610de3575b610dcf81836108b4565b8101906111b9565b9450505050505f610bb8565b503d610dc5565b346100fe575f3660031901126100fe576001546040516001600160a01b039091168152602090f35b346100fe575f3660031901126100fe57610e2a61185e565b5f805160206119e583398151915280546001600160a01b031981169091555f906001600160a01b03167f8be0079c531659141344cd1fd0a4f28419497f9722a3daafe3b4186f6b6457e08280a3005b346100fe575f3660031901126100fe575f546040516001600160a01b039091168152602090f35b346100fe575f3660031901126100fe575f805160206119e5833981519152546040516001600160a01b039091168152602090f35b346100fe5760403660031901126100fe57600435610ef18161012e565b610ef961185e565b5f805160206119e58339815191525460405163a9059cbb60e01b81526001600160a01b039182166004820152602480359082015291602091839160449183915f91165af1801561046c57610f4957005b610a259060203d6020116104655761045581836108b4565b5f5b838110610f725750505f910152565b8181015183820152602001610f63565b90602091610f9b81518092818552858086019101610f61565b601f01601f1916010190565b346100fe575f3660031901126100fe5761043a604051610fc681610898565b60058152640352e302e360dc1b6020820152604051918291602083526020830190610f82565b346100fe5760203660031901126100fe57610a2560043561100c8161012e565b61101461185e565b6112b3565b908160209103126100fe575161102e8161012e565b90565b6040513d5f823e3d90fd5b5f54604051630150a5d760e21b815290602090829060049082906001600160a01b03165afa5f9181611073575b5061102e57505f90565b61108d91925060203d602011610d4457610d3681836108b4565b905f611069565b908160209103126100fe575190565b916060838303126100fe5782356110b98161012e565b9260208101356110c88161012e565b92604082013567ffffffffffffffff81116100fe5761102e92016108f2565b519081151582036100fe57565b908160209103126100fe5761102e906110e7565b6040519061111582610898565b601082526f18dbdb1b185d195c985b105b5bdd5b9d60821b6020830152565b634e487b7160e01b5f52601160045260245ffd5b9061012c820180921161115757565b611134565b9190820180921161115757565b90611172611896565b61117a611896565b611182611896565b61118b336112b3565b60018060a01b0390816bffffffffffffffffffffffff60a01b9316835f5416175f5516906001541617600155565b91908260c09103126100fe5781519160208101519160408201519160608101519160a0608083015192015190565b90816101209103126100fe5780519160208201519160408101519160608201519160808101519160a08201519160c08101519160e082015164ffffffffff811681036100fe5761010061102e9193016110e7565b6001600160a01b03918216815291166020820152606060408201819052810183905260809290918190848401375f828201840152601f01601f1916010190565b94935f936112ae9260809460018060a01b038092168952166020880152604087015260a0606087015260a0860190610f82565b930152565b6001600160a01b0390811690811561130c575f805160206119e583398151915280546001600160a01b031981168417909155167f8be0079c531659141344cd1fd0a4f28419497f9722a3daafe3b4186f6b6457e05f80a3565b604051631e4fbdf760e01b81525f6004820152602490fd5b5f9190829161136860405180926113546020830195632d839cb360e21b8752604060248501526064840190610f82565b90604483015203601f1981018352826108b4565b51906a636f6e736f6c652e6c6f675afa50565b90916060828403126100fe5781516113928161012e565b9260208301516113a18161012e565b9260408101519067ffffffffffffffff82116100fe570181601f820112156100fe5780516113ce816108d6565b926113dc60405194856108b4565b818452602082840101116100fe5761102e9160208085019101610f61565b3d15611424573d9061140b826108d6565b9161141960405193846108b4565b82523d5f602084013e565b606090565b9190820391821161115757565b909161144d8151916020808094830101910161137b565b604080516370a0823160e01b808252306004808401919091526001600160a01b039687169895871697929691959094929392919084886024818d5afa97881561046c575f9861183f575b506114a142611148565b421161180057835163095ea7b360e01b81526001600160a01b038a16878201908152602081019c909c5291169990919084908390819003604001815f8e5af190811561046c575f9283926117e3575b508481519101828a5af16115026113fa565b901561176e575061151242611148565b42116117305780518481523084820190815290959083908790819060200103818b5afa95861561046c575f9661170d575b5061154e9086611429565b81519485523085850190815290939083908690819060200103818c5afa94851561046c575f956116ee575b50620186a084106116a3575f805160206119e58339815191528054835163a9059cbb60e01b8082526001600160a01b03909216818501908152602081019990995290979092919085908490819003604001818d5a905f91f190811561046c5785936115f192611686575b50546001600160a01b031690565b83519788526001600160a01b0316908701908152602081018690528690819060400103815f8c5af191821561046c577f14233ca0bd4739a6a7f226fceb49ccfb881dfcbdf00875f38ae40ff5cc909d669561166393611668575b50505191825260208201929092529081906040820190565b0390a4565b8161167e92903d106104655761045581836108b4565b505f8061164b565b61169c90853d87116104655761045581836108b4565b505f6115e3565b6104cd915191829162461bcd60e51b8352820160609060208152601e60208201527f676f742075736463206973206c657373207468616e20302e312055534443000060408201520190565b611706919550833d85116104f7576104e981836108b4565b935f611579565b61154e91965061172990843d86116104f7576104e981836108b4565b9590611543565b5162461bcd60e51b815260208184018181526011918101919091527013dc195c985d1a5bdb881d1a5b595bdd5d607a1b604082015281906060010390fd5b8051909391901561178157505081519101fd5b6104cd92505191829162461bcd60e51b8352820160809060208152602d60208201527f7377617020776974682061676772656761746f72206661696c6564207769746860408201526c08195b5c1d1e481c995cdd5b1d609a1b60608201520190565b6117f990863d88116104655761045581836108b4565b505f6114f0565b835162461bcd60e51b815260208188018181526011918101919091527013dc195c985d1a5bdb881d1a5b595bdd5d607a1b604082015281906060010390fd5b611857919850853d87116104f7576104e981836108b4565b965f611497565b5f805160206119e5833981519152546001600160a01b0316330361187e57565b60405163118cdaa760e01b8152336004820152602490fd5b60ff5f80516020611a258339815191525460401c16156118b257565b604051631afcd79f60e31b8152600490fd5b90813b15611948575f80516020611a0583398151915280546001600160a01b0319166001600160a01b0384169081179091557fbc7cd75a20ee27fd9adebab32041f755214dbc6bffa90cc0225b39da2e5c2d3b5f80a280511561192d5761192a91611969565b50565b50503461193657565b60405163b398979f60e01b8152600490fd5b604051634c9c8ce360e01b81526001600160a01b0383166004820152602490fd5b5f8061102e93602081519101845af46119806113fa565b91906119a8575080511561199657805190602001fd5b60405163d6bda27560e01b8152600490fd5b815115806119db575b6119b9575090565b604051639996b31560e01b81526001600160a01b039091166004820152602490fd5b50803b156119b156fe9016d09d72d40fdae2fd8ceac6b6234c7706214fd39c1cd1e609a0528c199300360894a13ba1a3210667c828492db98dca3e2076cc3735a920a3ca505d382bbcf0c57e16840df040f15088dc2f81fe391c3923bec73e23a9662efc9c229c6a00a2646970667358221220356003b8935db8f22f9862b852b068d5f96b4d337278d5c8581a7221f4516e6264736f6c63430008160033","linkReferences":{}},"methodIdentifiers":{"ADDRESSES_PROVIDER()":"0542975c","POOL()":"7535d246","UPGRADE_INTERFACE_VERSION()":"ad3cb1cc","aave_v3_pool()":"f5f8bbbc","dex()":"692058c2","executeLiquidation(address,address,address,bytes)":"57590b78","executeOperation(address,uint256,uint256,address,bytes)":"1b11d0ff","initialize(address,address)":"485cc955","owner()":"8da5cb5b","proxiableUUID()":"52d1902d","renounceOwnership()":"715018a6","transferOwnership(address)":"f2fde38b","upgradeToAndCall(address,bytes)":"4f1ef286","withdrawToken(address,uint256)":"9e281a98"},"id":48}